:020000040000FA
:0600000002011A020EB11C
:03002B00021407B5
:030033000213E9CC
:03005300020F2772
:03006B000213C0BD
:10008300020DB3E5C754F84401F5C7790122000016
:100093000080FB120086B90003020104E4791B7897
:1000A30002B800028004F709D8FCE4791D7802B88D
:1000B30000028004F709D8FCE490028178BC790A35
:1000C3008002F0A3D8FCD9FA781A90014A7A01BACF
:1000D30000028007E493A3F608DAF97A3C7B0C90DC
:1000E300014B78E079018015E493A3AD82AE838A56
:1000F300828B83F0A3AA82AB838D828E83D8E9D9C6
:10010300E77582FC758366740012012C7582917504
:100113008300740012012C75D00075813F7518811E
:10012300751902759F00020096C09FF59FE473D076
:100133009F22D083D082C09FE493C0E0740193C018
:10014300E0740293F59F2201303132333435363770
:100153003839414243444546200D094241544D4FED
:100163004E313030364235020A00B50610CBEB80F3
:100173000201050303B0FB13FF000180EBCB100664
:10018300B50000000000090000380000FF0000B4C3
:10019300000028002800283075A000A000A000A0BF
:1001A3000000080008E001F000100010001000102B
:1001B300001000100050005000500010001000D03C
:1001C300070000000000000F000100050030750764
:1001D300001000010081FF00000000FFE4020203A1
:1001E300EA02FF3A043A043A043A043A043A043A73
:1001F300043A043A043A043A043A043A04FF013054
:10020300750302010400000000000000000000006C
:1002130000000000000000000000000000000000DB
:1002230000FF00010000001201358E290012013584
:10023300A72900120135C02900120135DB2900125C
:100243000135F729001201354D2A00120135722AB2
:1002530000120135A82A00120135BD2A001201350A
:10026300232B001201353E2B001201351C2C0012EA
:1002730001355A2C001201358D2C00120135502DF9
:1002830000120135AD2E001201354F2F001201353A
:10029300694B00120135914B00120135BE4B001220
:1002A3000135F64B00120135424C001201358E4CDC
:1002B30000120135CE4C00120135784D0012013584
:1002C300F06200120135076300120135691C001248
:1002D3000135531D00120135FE1D001201354F1E5D
:1002E30000120135FF1E00120135701F0012013587
:1002F3005520001201358920001201358221001298
:100303000135BF21001201359B2200120135DA228B
:1003130000120135F622001201351759001201357A
:100323002259001201353459001201350C5A0012BA
:100333000135115A00120135025B001201351755C0
:10034300001201353F550012013593550012013556
:10035300A85500120135BD55001201352156001272
:1003630001355E5600120135A15600120135CB56F8
:1003730000120135F05600120135064E0012013508
:10038300E94E001201353460001201357760001226
:1003930001350C6600120135341400120135CA15FB
:1003A30000120135A0160012013542170012013563
:1003B300B517001201355319001201358F190012B8
:1003C30001351A1B001201355F1B00120135A250C3
:1003D300001201356A5100120135C2520012013573
:1003E300572300120135D8230012013505240012CA
:1003F30001354A24001201354125001201358F25AC
:10040300001201350B270012013588270012013530
:10041300ED27001201355E28001201354C29001228
:100423000135792900120135115E001201351D5E77
:1004330000120135F15E0012013518670012013513
:1004430014350012013538350012013531360012EA
:100453000135A43700120135453900120135BA3987
:1004630000120135083A00120135223A0012013513
:100473003C3A00120135D14700120135674800129A
:1004830001357D4800120135D648001201351A495D
:1004930000120135544900120135EC4900120135AF
:1004A3005B4A00120135644A00120135704A00129A
:1004B30001359D4A00120135B24A00120135144B31
:1004C300001201353B4B00120135EC52001201358D
:1004D300F95200120135135300120135465300122D
:1004E3000135AB5300120135C05300120135CB5314
:1004F30000120135D85300120135EF5300120135B4
:10050300FD5300120135085400120135175400122F
:1005130001353454001201354454001201355A5444
:100523000012013576540012013581540012013551
:10053300965400120135AA5400120135E0640012EA
:1005430001350C6500120135676500120135453A26
:1005530000120135833A00120135DD3A00120135EC
:10056300FE3A001201354F3B00120135783B001271
:1005730001358D3B00120135FE3B001201358C3CE9
:1005830000120135C93C00120135F93C0012013556
:100593007D3D00120135BD3D00120135F53D0012D0
:1005A3000135143E001201351D3E0012013555661A
:1005B300001201352F610012013518570012013561
:1005C3004E5700120135845700120135DD580012D1
:1005D30001353C64001201355264001201355C643C
:1005E30000120135B2640012013557430012013580
:1005F30070430012013514440012013554440012B3
:1006030001356D4400120135A14400120135EE4459
:1006130000120135224500120135644500120135EF
:10062300644700120135DC3E00120135AF40001271
:100633000135F840001201352B41001201351842F3
:1006430000120135C26600120135976300120135AD
:100653000C6700120135305F00120135B55F0012DF
:1006630001351B6000120135306200120135506202
:1006730000120135A96200120135E362001201354F
:10068300E662001201351267001201351567001288
:100693000135F87F001201350B5B00120135845CD4
:1006A30000120135796500120135E55C0012013550
:1006B3000F5D00120135B62F0012013573300012A1
:1006C3000135AE30001201351031001201355C31B5
:1006D30000120135B53100120135463200120135E1
:1006E300033400120135853400120135EA34001257
:1006F3000135966600120135E46600E06670100865
:10070300A3E066700A08A3E066700408A3E066220B
:10071300C3E7960809E7960809E7960809E79622CA
:10072300C3E09608A3E09608A3E09608A3E0962208
:10073300C008C3E096F50808A3E096420808A3E0C2
:1007430096420808A3E09645087001D3D008220812
:100753000808EAC0E0EBC0E086F0E7A4FA180986CF
:10076300F0E7A42AFA180986F0E7A42AFA180986FA
:10077300F0E7A42AFA1986F0E7A4FBE5F02AFA19B0
:100783000886F0E7A42BFBE5F03AFA190886F0E7B0
:10079300A42BFBE5F03AFA18180986F0E7A4C5F094
:1007A3002BFBE43AFA1908E7C5F0C6A426F6E5F0F0
:1007B3003BFBE43AFA1886F0E7A4F6E5F00826F6E0
:1007C300E43B08F6E43A08F6D0E0FBD0E0FA22E492
:1007D300CFC0E0E4CEC0E0E4CDC0E0E4CCC0E0753F
:1007E300F020E626F608E633F608E633F608E633A5
:1007F300F6181818EC33FCED33FDEE33FEEF33FF40
:10080300C3EC9709ED9709EE9709EF97191919406A
:100813000FFFEC97FC09ED97FD09EE97FE191906FA
:10082300D5F0BFECF709EDF709EEF709EFF7191962
:1008330019D0E0FCD0E0FDD0E0FED0E0FF2260164E
:10084300080808C6C313C618C613C618C613C618A5
:10085300C613C6D5E0EA22700908080822601618F4
:100863001818C6C333C608C633C608C633C608C677
:1008730033C6D5E0EA22E627F60809E637F6080983
:10088300E637F60809E637F622E026F608A3E0364F
:10089300F608A3E036F608A3E036F622E026F008D1
:1008A300A3E036F008A3E036F008A3E036F022C355
:1008B300E697F60809E697F60809E697F60809E6C3
:1008C30097F622C3E096F008A3E096F008A3E0961B
:1008D300F008A3E096F022E056F608A3E056F608E7
:1008E300A3E056F608A3E056F622E0F608A3E0F6E6
:1008F30008A3E0F608A3E0F622E6F008A3E6F00872
:10090300A3E6F008A3E6F022E0FAA3E0FBA3E0FCF1
:10091300A3E0FD22E0F8A3E0F9A3E0FAA3E0FB22C1
:10092300E8F0A3E9F0A3EAF0A3EBF022CAC0E0E603
:10093300F0A308DAFAD0E0FA22CAC0E0E0A3C58245
:10094300CCC582C583CDC583F0A3C582CCC582C582
:1009530083CDC583DAE6D0E0CA22B90010BB000814
:10096300E88AF084F8AAF022E4FBC8FA22EB7022AA
:100973007B10C833C8C933C9335007C39AC3DBF2EA
:1009830080069A50012ADBEAC833F4C8C933F4C994
:10099300FA2275F008E4C833C8C933C933C99AC900
:1009A3009B5004C92AC93BD5F0ECFBC833F4C8E417
:1009B300C9FA22600D08C6A2E713C618C613C6D526
:1009C300E0F322600C08C6C313C618C613C6D5E0ED
:1009D300F422700422600D18C6C333C608C633C69A
:1009E300D5E0F41822251810AF08F518400C151996
:1009F3008008F51840021519D2AF2200C0D025187F
:100A030010AF08F518500C05198008F518500205A9
:100A130019D2AFD0D0222518F58210AF08F51840AF
:100A23000C15198008F51840021519D2AF851983E2
:100A3300222518F582E43519F583222518F8E435C3
:100A430019F9222518FAE43519FB222518FCE43597
:100A530019FD22E4732518C582C0E0E51934FFC5EA
:100A630083C0E0E518C3958224F810AF0885831985
:100A73008582188008858319858218D2AFCEF0A3AA
:100A8300E520F0A37808E608F0A3DEFAEFF0A3E58B
:100A93008124FAF8E608F0A3E608F0A3E608F0A339
:100AA3000808E608F0A3E608F0A315811581D0E055
:100AB300FED0E0F8158115811581E8C0E0EEC0E0B5
:100AC300222518C582C0E0E51934FFC583C0E0E5DF
:100AD30018C3958224F910AF08858319858218807D
:100AE30008858319858218D2AFCEF0A3E520F0A341
:100AF3007808E608F0A3DEFAEFF0A3E58124FBF81B
:100B0300E608F0A3E608F0A30808E608F0A3E60861
:100B1300F0A315811581D0E0FED0E0F81581158191
:100B2300E8C0E0EEC0E022851983851882E0A3FEC9
:100B3300E0A3F5207808E0A3F608DFFAE0A3FFE0DE
:100B4300A3C0E0E0A3C0E0E0A3C0E0E0A3C0E0E016
:100B5300A3C0E010AF0885821885831980088582B9
:100B630018858319D2AFD083D082020132851983CD
:100B7300851882E0A3FEE0A3F5207808E0A3F60839
:100B8300DFFAE0A3FFE0A3C0E0E0A3C0E0E0A3C07E
:100B9300E0E0A3C0E010AF088582188583198008C0
:100BA300858218858319D2AFD083D08222C0D02505
:100BB30018C582C0E0E51934FFC583C0E0E518C35A
:100BC300958224F310AF08858319858218800885E0
:100BD3008319858218D2AFC8F0A3E9F0A3EAF0A382
:100BE300EBF0A37908E709F0A3D8FAECF0A3EDF052
:100BF300A3EEF0A3EFF0A3D0E0F0A3D0E0F0A3D0F6
:100C0300E0F0A3E520F0A3E5F0F0A32285198385A6
:100C13001882E0C0E0A3E0F9A3E0FAA3E0FBA37825
:100C230008E0F608A3DFFAE0FCA3E0FDA3E0FEA3DF
:100C3300E0FFA3E0C0E0A3E0C0E0A3E0F5D0A3E0C1
:100C4300F520A3E0A3F5F010AF088583198582187A
:100C53008008858319858218D2AFD082D083D0E0F3
:100C6300F8D0E03274048006740280027401C0E09C
:100C7300F404120A19D0E012092F227404800474B8
:100C8300028000CCC0E0EDC0E0E518C39CCCAD19F8
:100C930050011D10AF068C188D1980068C188D1904
:100CA300D2AF12093CD0E0FDD0E0FC22D083D08249
:100CB300E9C0E0E493A3C386F0C5F095F0F908E436
:100CC30093A386F0C5F095F0700BE493A3C399400A
:100CD30005E9048002A3E475F002A42582F582E508
:100CE300F03583F583D0E0F9E493A3C0E0E493C047
:100CF300E022D083D082ECC0E0EDC0E0E493A3FC1B
:100D0300E493A3FDED4C600D120D41EC24FFFCEDCB
:100D130034FFFD80EFE493A3FCE493A3FDED4C606B
:100D23000D120D80EC24FFFCED34FFFD80EFD0E0CD
:100D3300FDD0E0FCE493A3C0E0E493C0E022C0E074
:100D4300C3E49396087401939618400FE493667076
:100D53000808740193661870007019A3A3C3E49381
:100D630096087401939618A3A3400DD0E0D0E0D069
:100D7300E0020D31A3A3A3A3A3A3D0E022C0E0C04C
:100D8300F088F0E4936670080874019366187000A5
:100D9300A8F0A3A3700BD0F0D0E0D0E0D0E0020D18
:080DA30031A3A3D0F0D0E0223F
:100DAC00851B87851CC622C0E074EF120BB0A2AF66
:100DBC00E433FEC2AF759B00906182E0A2E0500963
:100DCC00E591A2E050037591FEE0A2E55009E59192
:100DDC00A2E550037591DFE0A2E64003020E87E521
:100DEC0091A2E64003020E877591BF9002D7E06492
:100DFC000570081204A01204AC80031204A6751B23
:100E0C0000120500E99002D8F079001204F41203E4
:100E1C00F27A017B009002D6E0F9120590907803EB
:100E2C00E064427056900352E014F0704EC2AF1260
:100E3C000E3E00781ED0E0F618D0E0F6E59F540781
:100E4C00F870057509FF800375097FC4C0E0781D33
:100E5C00E6F50808E65509F509740B78081209C679
:100E6C00D0E02508F8906270E0A2E740F8E8C333C0
:100E7C00906272F0906270E0D2E0F0906181E0A23A
:100E8C00E35009E5E9A2E3500375E9F7A3E0A2E713
:100E9C005009E591A2E7500375917FEEA2E092AF65
:100EAC007F04020C0FC0E0C0D0C082C0839061836D
:100EBC00E0A2E05009E5BFA2E0500375BFFEE0A23E
:100ECC00E15009E5BFA2E1500375BFFDE0A2E2507D
:100EDC0009E5BFA2E2500375BFFBE0A2E35009E5B0
:100EEC00BFA2E3500375BFF7E0A2E45009E5BFA22F
:100EFC00E4500375BFEFE0A2E55009E5BFA2E55051
:100F0C000375BFDFE0A2E65009E5BFA2E65003750A
:100F1C00BFBFD083D082D0D0D0E032C0E074F21208
:100F2C000BB0E5A7A2E6500FE5A1A2E6500953A726
:100F3C00BF75A1BF120F7BE5A7A2E5500CE5A1A2DE
:100F4C00E5500653A7DF75A1DFE5A7A2E15009E53F
:100F5C00A1A2E1500375A1FDE5A7A2E2500CE5A109
:100F6C00A2E2500653A7FB75A1FB7F01020C0F7484
:100F7C00F7120AC4751B019002D7E06406701512B3
:100F8C0004648A828B83A3A3A3A3A3A3E0FAA3E0A4
:100F9C00FB12048EA2AFE433FED2AF9002DDE0640C
:100FAC000170187A207B009002D6E0F912060E7AB6
:100FBC00207B009002D6E0F9120596906182E0D277
:100FCC00E6F090034FE0602185C61C80169002DC91
:100FDC00E064017008E5C654F84405F5C653BEFC40
:100FEC00120DAC7401651B60E4EEA2E092AF7F02BF
:100FFC00020B7074E9120AC474FA1209E8EAFEEBE7
:10100C00FF8C0A8D0B1204BEEAF8EBF9ECFAEDFB3F
:10101C008E828F831209239002D7E024F7C39405A4
:10102C0050067514010211661204648A088B09EAD1
:10103C0045097003021163EEFCEFFDAA18AB1912FF
:10104C0004B8850882850983A3A3780C1208ED9057
:10105C008018780C1208DA8518828519837810129A
:10106C0008ED90801878101208DA780C79101207B5
:10107C0013501F780C79101208B290803C780C1227
:10108C0007334047850C14850D15850E16850F17F3
:10109C00804590803C85101485111585121685139A
:1010AC00177814790C1208B27814120733501C7587
:1010BC001400751500751600751701781479101247
:1010CC0008B27814790C120879800C751401751516
:1010DC00007516007517007409781412085A908060
:1010EC0050780C1208ED7814790C1207D28508820E
:1010FC00850983A3A3A3A3A3A312118412095D885A
:10110C000C890DE4F50EF50F7814790C120879742E
:10111C0004120A3412118412095DE8FA8A0CE4F5FF
:10112C000D7814790C12071350077814790C1208E7
:10113C00B29002D7E06408600AE064066005E064DF
:10114C00057020908040781412073350169080441C
:10115C00781412088C800C75140075150075160027
:10116C00751700850A82850B8378141208FC7406A7
:10117C001209FE7F10020B70E0F8A3E0F97AD07B25
:10118C00032274F7120AC41204D090034DE06401D8
:10119C007010906245E4F0A3F053F4F343FE0C534B
:1011AC0090F312047CE5C654B84441F5C6E59E5450
:1011BC0047644170F8906185740FF090034BE0F434
:1011CC007002A3E0604E90034CE0600814601B14A6
:1011DC00602E804075080175090090034BE078087B
:1011EC001209D5E508F45280802A750801750900AA
:1011FC0090034BE078081209D5E508F4529080145E
:10120C0075080175090090034BE078081209D5E5C3
:10121C0008F452A079007F02020B7074F7120AC412
:10122C00E9FEEAFF1204D074016E700C7A807B0028
:10123C009002D6E0F912059090142CE493F4600817
:10124C00E493F91203E6800953C6B8E59E5447703F
:10125C00FA12048290034DE06401700312040490AE
:10126C00034BE0F47002A3E0604B90034CE0600889
:10127C0014601A14602C803D7508017509009003E8
:10128C004BE078081209D5E50842808028750801E2
:10129C0075090090034BE078081209D5E5084290D7
:1012AC00801375080175090090034BE0780812094A
:1012BC00D5E50842A01204648A088B09A808A9097C
:1012CC00E8496014E5E170FCE82414F582E439F592
:1012DC0083E0F46003E0F5E174016F700A7A019029
:1012EC0002D6E0F91205DE02122274F1120AC48A47
:1012FC00088B098C0A8D0B90801878081208DA7408
:10130C000F120A34780C1208ED908018780C120821
:10131C00DA7808790C12071390803C501078087911
:10132C000C1208B278081207334014800E780C792E
:10133C00081208B2780C1207335004790180027934
:10134C00007F08020B7074ED120AC48A088B098C9A
:10135C000A8D0B90801878081208DA7413120A346C
:10136C00780C1208ED908018780C1208DA780C7949
:10137C000812071340117808790C1208B2AA08ABAE
:10138C0009AC0AAD0B8022751000751100751200A6
:10139C007513017810790C1208B2781079081208BC
:1013AC0079AA10AB11AC12AD137F0C020B70C2AF4B
:1013BC0002000022C0E074F2120BB0A2AFE433FEC4
:1013CC00D2AFE589A2E15003120674758900C2C53B
:1013DC00751A00EEA2E092AF7F01020C0FC0E07410
:1013EC00F2120BB0A2AFE433FED2AFE58BA2E05009
:1013FC0003120674758B00C2E880D5C0E0C0D0E83B
:10140C00C0E0E9C0E0E5A8D2AFC2C7751A00A2E7F8
:0F141C00A2E792AFD0E0F9D0E0F8D0D0D0E03224
:10142C00FFFFFFFFFFFFFFFF74F4120A58E9900261
:10143C00D6F01204CA907800E0C4540F5407640329
:10144C007004793F8002797F750806750900780869
:10145C00120C6B7CC47D027AEA7B0712065674026E
:10146C001209FE9002C4E0F47049A3E0F47044A3A6
:10147C00E0F4703FA3E0F4703AA3E0F47035A3E01D
:10148C00F4703090780EE09002C4F090780FE090F9
:10149C0002C5F0907810E09002C6F0907811E090C0
:1014AC0002C7F0907812E09002C8F0907813E090A8
:1014BC0002C9F09002CA1215C1121C389002E874CD
:1014CC0006F0A3740D1217A17441F0A37401F090EF
:1014DC0002F21215C19002F1E4F09002FFF0A37435
:1014EC00A01217A17403F0A374071217A174281289
:1014FC0017A104F0A3E4F0900328F090034B74FFC1
:10150C00F0A3E4F090034DF090034F04F0900350DF
:10151C007490F0A37401F01203FE1203A41204766B
:10152C0079017A527B0312042E900352E075F01469
:10153C0084E5F004F01204347A009002D6E0F9123B
:10154C0005DE907803E064427056900352E014F08C
:10155C00704EC2AF12156300781ED0E0F618D0E0C2
:10156C00F6E59F5407F870057509FF800375097F30
:10157C00C4C0E0781DE6F50808E65509F509740BBA
:10158C0078081209C6D0E02508F8906270E0A2E74E
:10159C0040F8E8C333906272F0906270E0D2E0F0F1
:1015AC009002EDE4F0A3F07A80FB9002D6E0F91201
:1015BC00059002178F74FF1217A7F0A3F02274F492
:1015CC00120A58EAFEEBFFEEA2E0503F9002D8E080
:1015DC00C39480E0500F25E0F8E433F974D728F574
:1015EC0082740C800EF425E0F8E433F974E528F5E8
:1015FC0082740C39F583121B11120A567A00900270
:10160C00D6E0F91205DEEE6401803B5480603B901D
:10161C000350121794E849602A79001205D89003F8
:10162C0050E0F508A3E0F509E4F50AF50B7808128B
:10163C000C677A007B019002D6E0F9120602740462
:10164C001209FEEE6480FAEF802DEF5401600C79E4
:10165C00011205D8EEFAEF6401801CEF5402600A07
:10166C00C2AF75C9AB75C95B80FEEF5404600B1239
:10167C0013BAEEFAEF6404FB80179002DDE064010C
:10168C00700BEE54206006EE6420FA80047A007B26
:10169C000002178FC082C083C2AF1204A6E5E170AE
:1016AC00FC75E1011203EC75E1F11204D61203E0B2
:1016BC007907120524790112052A79021204FA120B
:1016CC00050C120518790012051E790112051E90E1
:1016DC00802012090B1204E29002FFE4F0A3F0A3A5
:1016EC00F09003037407F09003027403F090030866
:1016FC00E4F0900307F0900328F012044012042247
:10170C007900120530906012E4F0A3F0906063F061
:10171C00751B009002D7F09002D9F0A3F09002DC78
:10172C00F09002DD04F09002E704F090034EE4F038
:10173C00D2AFF9021788C082C0839002C412179AE4
:10174C009002C5121774F09002C6121774A3F09091
:10175C0002C7121774A3A3F09002C812177BF09063
:10176C0002C912177BA38011E08A828B83A322E02B
:10177C008A828B83A3A3A3A322F07900D083D08287
:10178C000201327F04020B2AE0F8A3E0F922E08A7E
:10179C00828B83F022F0A3E4F0A322F0A3F0A3F059
:1017AC00A3F0A3227F02020B2A74F7120A58EAFE56
:1017BC00EBFF8908E9605D740165086015740365C9
:1017CC0008603B74026508603574046508600302A8
:1017DC00188A740B120A34121794E8497003021811
:1017EC008A740A120A34E0F8600874016860030213
:1017FC00188A74036508600674026508702AEE2462
:10180C0060F8EF1219435076EC2460F8ED1219438E
:10181C004016806AEE24E0F8EF1219385060EC2480
:10182C00E0F8ED1219385056C3EC9EED9F404F7402
:10183C0009120A34E0FA600574016A7041740E12E0
:10184C000A34E0F8600F740168600A74026860057D
:10185C007403687029740D120A34E0F97407596026
:10186C001D9002FFE064017005790C021936E50841
:10187C00600C7401650860067404650870057912C3
:10188C00021936740759900303F0E508900302F02F
:10189C00E8900304F0EA9002F1702FE4F09002C497
:1018AC00E09002F2F09002C5E09002F3F09002C6D4
:1018BC00E09002F4F09002C7E09002F5F09002C8BC
:1018CC00E09002F6F09002C9802E7401F09002CAEA
:1018DC00E09002F2F09002CBE09002F3F09002CC98
:1018EC00E09002F4F09002CDE09002F5F09002CE80
:1018FC00E09002F6F09002CFE09002F7F0E870046E
:10190C007900801974016870047901801074026880
:10191C00700479028007740368700579031205124C
:10192C00900300EEF0A3EFF07900801634FFF9C3BA
:10193C00E894E1E9943F2234FFF9C3E89461E99417
:10194C003F227F01020B2A74F6120A58E9FEC39457
:10195C0020500BEE900308F0601EEA4B70047912D5
:10196C00801E121B56120C6BEAFCEBFD7A097B03F2
:10197C0012054E74021209FE9003077401F07900EF
:10198C000217B074F4120A58E9FF9002D7E0640908
:10199C007003021A9AE0640A7003021A9AE0640B4C
:1019AC007003021A9AE0640C7003021A9AE0640D38
:1019BC007003021A9A900302E0601664016012E050
:1019CC006403600DE064026008E064046003021BC1
:1019DC000D9002F1E0600764016003021B0D90039F
:1019EC0002E064036005E064027010900300C3E041
:1019FC0094A0A3E094005003021B0D900302E0702E
:101A0C0003021B0D64017003021B0DE064047003E0
:101A1C00021B0DEF7003021AA6146003021B0D903B
:101A2C0002FFE06401606779011204589002EFEA4A
:101A3C00F0A3EBF09002FF7401F09002D7E0705528
:101A4C001204B28A088B098C0A8D0B9080147808CA
:101A5C0012088C90801878081208DA9002EF121B8A
:101A6C0011A3A378081208FC9002EFE0F8A3E0C8D9
:101A7C002406F582E438F583E4F0A3F012040AE9B5
:101A8C0060107AEF7B0212045E9002FFE4F0792181
:101A9C008005120446790002178F9002FFE060EE79
:101AAC00A2AFE433FEC2AF7AEF7B0212045E900267
:101ABC00FFE4F0120470E970411204A6906182E018
:101ACC00C2E6F0E5E170FC75E1017591BF75E1F1DD
:101ADC009002DDE0640170187A207B009002D6E061
:101AEC00F912060E7A207B009002D6E0F9120596C8
:101AFC007A009002D6E0F91205DEEEA2E092AF80F9
:101B0C009479128092E0F8A3E0F58388822274F62F
:101B1C00120A58E9FEC39420500BEE900328F06093
:101B2C001EEA4B70047912801E121B56120C6BEAC3
:101B3C00FCEBFD7A297B0312054E74021209FE9010
:101B4C0003077401F079000217B0E0F5087509007D
:101B5C00780822C082C083EA4B70057912021C0DF2
:101B6C009002D7E06005790C021C0D8A828B83E011
:101B7C00F47060A3E0F4705B8A828B83A3A3E0F41F
:101B8C0070518A828B83A3A3A3E0F470468A828B64
:101B9C0083A3A3A3A3E0F4703A8A828B83A3A3A3A9
:101BAC00A3A3E0F4702D9002D0E09002C4F0900258
:101BBC00D1E09002C5F09002D2E09002C6F0900203
:101BCC00D3E09002C7F09002D4E09002C8F09002EB
:101BDC00D58027121C388A828B83E09002C4121C99
:101BEC0016E09002C5121C109002C6121C1D900229
:101BFC00C7121C299002C8121C24E09002C9F0796B
:101C0C0000021788121C16A3E022F08A828B83A391
:101C1C0022121C16A3A3E022121C2EA322121C2E8D
:101C2C00E022F08A828B83A3A3A3A3229002C4E0B8
:101C3C009002D0F09002C5E09002D1F09002C6E084
:101C4C009002D2F09002C7E09002D3F09002C8E06C
:101C5C009002D4F09002C9E09002D5F02274F412F4
:101C6C000A588908EAFEEBFF12234D600579110230
:101C7C001D3F90028AE0540560309002A712235059
:101C8C006005121F6B70057910021D3F90028AE0EF
:101C9C00A2E0400612032CE960158E828F83E0F8D7
:101CAC00740368600A74026860057912021D3F7A39
:101CBC000C7B001205C69002A5121EF912234D6072
:101CCC006E122083E508121D42E4F0750A0AF50B2A
:101CDC00780A120C6BEEFCEFFD9002A5E02402FAE0
:101CEC00A3E03400FB12054E74021209FE1202EA44
:101CFC00E9FE600512030E803890028BE0640370DD
:101D0C00307A1D7B0012029690028C121EF9900202
:101D1C008C122350601B908024120C7E7A047B0062
:101D2C009002ADE0F912060874041209FE80027EDE
:101D3C0013EEF9022280F09002A5121D4A22122203
:101D4C0096F5838882A32274EE120A58890C8A0AAB
:101D5C008B0B8C0E8D0F90028AE054057003021DC4
:101D6C00F77401650A700D9002A7122350607C90E5
:101D7C0002A7800B9002A9122350606F9002A9E079
:101D8C00FEA3E0FFEBC394205008EB6009EC450F79
:101D9C00700479028057E50C900CCFF08E828F8303
:101DAC00A38582088583097C1F7D007900AA08AB76
:101DBC000912055A850B107511007810120C6BACBA
:101DCC000EAD0FAA08AB0912054E74021209FE8E55
:101DDC00828F83E50BF0F9E50AAA08AB09600512BE
:101DEC00034A8003120350E9F9800279127F0A0238
:101DFC000B2A74F7120A5812234B7004791280398B
:101E0C00121F6B6E60047903802F7A027B009002A4
:101E1C00ADE0F912060E9002ABE4F0A3F07A04FBED
:101E2C009002ADE0F912060E90028CE4F0A3121DA4
:101E3C00427403F07900120356021EF1D083D08253
:101E4C0002013274F7120A589002A7122350600D47
:101E5C0012228A1205CC9002A7E4F0A3F09002A9FA
:101E6C0012235060109002A912228D1205CC900200
:101E7C00A9E4F0A3F090028AE05405605F7AD07B6D
:101E8C000C1203387E0090028AE05405604A7A20D6
:101E9C007B001205C6121EF69002A7122350603664
:101EAC007C207D00790012055A7A207B001205C631
:101EBC009002A9121EF99002A9122350600B7C20EB
:101ECC007D00790012055A800F12228A1205CC90DF
:101EDC0002A7E4F0A3F07E13EEF980097A007B00F0
:101EEC0012033879007F01020B2A9002A7EAF0A3B3
:101EFC00EBF02274F6120A587E018A828B83A3A31C
:101F0C00A3E0FCA3E0FD8C088D097808120CAF0649
:101F1C0020045E1F2A1F5E1F3C1F3C1F321F122213
:101F2C00C81202F080061222C81202F6E9FE8024C2
:101F3C0074086C700374206D700479018002790050
:101F4C008A828B83A3A3A3A3A3121F68FA1202FC99
:101F5C0080027E00EEF90222859002A7E0F8A3121F
:101F6C002083E02274F2120A5812234D70030220CF
:101F7C004212207EA3E0F50B12032CE960137A0ABF
:101F8C007B001202968A088B09AE08AF097A0B8087
:101F9C002A120314E960137A067B001202968A084F
:101FAC008B09AE08AF097A0780117A087B00120200
:101FBC00968A088B09AE08AF097A097B0012029643
:101FCC008A088B0990028BE07005750A00800375F6
:101FDC000A019002A5E02404FAA3E03400FB121DD0
:101FEC0043A3A3E0F91202AEE9F9122293C8240B21
:101FFC00122049120C6F122293C8240A1220491283
:10200C000C6F9002A5E02404F50CA3E03400F50D50
:10201C00780C120C6BE9F50C780C120C6F780A1218
:10202C000C6FA90BAC08AD09EEFAEFFB120344746C
:10203C00061209FE800279017F06020B2AF582E462
:10204C0038F583E0F50C780C2274F7120A58122339
:10205C004B601AEE700C12207E7401F0F9120356CC
:10206C00E9FEEE6004F9120308790180027900029E
:10207C001EF1122083A322E0F58388822274F012D1
:10208C000A5812234B700302216A12207EE064016D
:10209C006003022143120314E960557A017B00129C
:1020AC0002968A088B09E4F50AF50BC3EA9442EB15
:1020BC009400402B908024120C7E7A027B009002BC
:1020CC00ADE0F912060874041209FEE50824C4F800
:1020DC00E50934FFF99002ABE8F0A3E9F0804190F8
:1020EC008048780C1208ED7808790C120752801091
:1020FC007A007B001202968A088B09E4F50AF50B2C
:10210C00E5084509450A450B60167808120C677AF4
:10211C00027B009002ADE0F912060274041209FE73
:10212C00121D437402F090028EE07007EEF9120358
:10213C00088027E4F0802390028EE0701D7A037BE8
:10214C0000120560EA4B600F1221717404F09002CA
:10215C00A51222D112056C12030E790180027900AE
:10216C007F08020B2A8A828B8374D0F0EEA3F08A4C
:10217C00828B83A3A32274F6120A58E9FEEAFF901D
:10218C000CCFE0F4602A7A047B00120560EA4B6005
:10219C001F8A828B8374D0F0EF1221797402F0EED7
:1021AC008A828B83A3A3A3F0900CCFE0F912056C69
:1021BC0002228574F4120A58E9FE74016E6003025F
:1021CC00225B9002AB122350600690028EE06012EC
:1021DC0012234D700302227E121F6BF91202D802D9
:1021EC00227E9002ABC3E0943CA3E09400400D909F
:1021FC0002ABE024C4F0A3E034FF80507A027B00F1
:10220C009002ADE0F912060E9002ABE0F508A3E0E7
:10221C00F509E50875F0E8A4C508A8F075F003A465
:10222C0028F875F0E8E509A428F509E4F50AF50B9A
:10223C007808120C677A027B009002ADE0F9120666
:10224C000274041209FE9002ABE4F0A3F080231296
:10225C00234D601E90028AE0A2E250167A027B00A7
:10226C009002ADE0F912060E9002ABE4F0A3F0126E
:10227C00030E80007F04020B2A7F02020B2A9002BD
:10228C00A7E0FAA3E0FB229002A5E0F8A3E02274F9
:10229C00F6120A5812234B60207A037B0012056059
:1022AC00EA4B600F1221717403F09002A51222D137
:1022BC0012056CEE600312030E0222858A828B8358
:1022CC00A3A3A3A3A3E0F8A3122083E0F922C08266
:1022DC00C08312234D60109002A512228D1205CCE2
:1022EC009002A5E4F0A3F0021E4874F6120A58748A
:1022FC00FF1209E89002A712235060399002A7E060
:10230C002401F508A3E03400F5097808120C6B12CF
:10231C001F65FC7402120A4679011202C67402127D
:10232C0009FE8A828B83E58245836009E0A2E05036
:10233C000479018002790074011209FE022285E9F8
:10234C00FE9002A5122296F9E84922C082C0839021
:10235C0061907404F0A37448F0A37402F09061804F
:10236C007440F09061BC7403F09061877419F09024
:10237C006265741BF0906249E0C3941390619C40B9
:10238C00107409F09060667401F090619F7428805D
:10239C000D740BF0906066E4F090619F742CF01259
:1023AC00252A7009C2919002DB746780059002DBCC
:1023BC007461F012258590142CE493F46006E49378
:1023CC00F91203E6790512053602253AC082C0835C
:1023DC00E9540FF9906185E0696012E5C654B84480
:1023EC0041F5C6E59E5447644170F8E9F053C6B810
:1023FC00E59E544770FA02253AC082C083A8A853C0
:10240C00A87E906181E4F0A3F0A3F0C2BA539AFEC7
:10241C00C289759B00C2C275E90075910075BF0039
:10242C0075A91175B905906181F0A374C0F0A3E48E
:10243C00F0D2BA439A0174805842A802253AC0825D
:10244C00C08374F81209E89002D9122964E8497023
:10245C00030225239002D9E0544060177908AA188A
:10246C00AB1912042EAA18AB191203629002D9E010
:10247C0054BFF0E0A2E0501E12252A7009C29190C0
:10248C0002DB746780059002DB7461F012036890C4
:10249C0002D9E054FEF0E05402601E122578700957
:1024AC00D2919002DB747180059002DB746AF01299
:1024BC0003689002D9E054FDF0E0540460109014CD
:1024CC003012258812036E9002D9E054FBF0E054D0
:1024DC0008601090143112258812036E9002D9E016
:1024EC0054F7F0E05410600D12258512036E900223
:1024FC00D9E054EFF0E05420600A12036E9002D938
:10250C00E054DFF0A3E05401600D120404120374D4
:10251C009002DAE054FEF074081209FE801090610B
:10252C009A12277A90034DE0640122F0A3F0D08335
:10253C00D082020132C082C083E96005146017802A
:10254C002912252A7009C2919002DB7467801A90B7
:10255C0002DB746180131225787009D2919002DB32
:10256C00747180059002DB746AF080C290619A12DB
:10257C00276C90034DE0640122901432E493906137
:10258C0086F02274EA120A5874F41209E890801C3E
:10259C00AC18AD19740412093C90143093F4600318
:1025AC00022701907808E0C3940250030226E590BC
:1025BC00800C7404120A4E740812093CA818A9194C
:1025CC00881489157404120A3E88088909AE08AF6C
:1025DC00097510FF7511FF750EFF7C00750C4875A1
:1025EC000D78801274086C700302267B74096C6081
:1025FC007E740A6C6079850C82850D8378081208CC
:10260C00ED8E828F83A909E50AC9F88812741878AF
:10261C0008120841E5124508F8C3E098A3E0998533
:10262C000C82850D8378081208ED40188E828F83FA
:10263C0074187808120841E5124508F8E0C398F8B8
:10264C00A3E0801A74187808120841E5124508FABC
:10265C00E9FB8E828F83122964EAC398F8EB99F90F
:10266C00C3E89510E995115006881089118C0E0C51
:10267C00E50C2404F50C5002050DECC39413500327
:10268C000225F074FF6510700474FF6511602485D9
:10269C000E08740278081209D574482508F582745E
:1026AC00783509F58378081208ED85148285158331
:1026BC00E508F0EE2402FE50010F85148285158387
:1026CC00A3858214858315740C120A34E5826E700E
:1026DC0003E5836F60030225DD7508017509007839
:1026EC0008120C6B7402120A4E7A0C7B0512065CF3
:1026FC0074021209FE740C1209FE7F0E020B2AC022
:10270C0082C0839061AE7468F0A3746AF0906245E5
:10271C0074FBF0A304F053F4FD43FE0290034D74DC
:10272C0001F09061A0E0643A90619A701912277AD6
:10273C00740164017009C2919002DB7467801E9071
:10274C0002DB7461801712276C740164017009D26A
:10275C00919002DB747180059002DB746A0225395A
:10276C00743FF0A3745AF09061A0747FF02274331C
:10277C00F0A37455F09061A0743AF022C082C0832B
:10278C0075E1F1900302E024FE604D14704F1204C9
:10279C00109002F1E0F97AF27B021204DC908028AE
:1027AC0012090B12050690802012090B1204E290FC
:1027BC000303E0F91204EE790112052A9002EFE00E
:1027CC00F8A3E0C8241AF582E438F583741CF0A34E
:1027DC007404F0790002253A12041680B479128040
:1027EC00F474F7120A581228364402F5D97582F29D
:1027FC007583021228DF7004E583640270F5900380
:10280C0008E0600A78097903FA1228D3DAFB75E13B
:10281C0095900CD7122848F0A31228481228E77478
:10282C0014F09002D77404022973900308E0240773
:10283C00F5D99002F1E0C4333354C02274D4122879
:10284C0055122855F0A3740322F0A37403F0A3745B
:10285C00D42274F7120A581228364406F5D9758218
:10286C00F27583021228DF7004E583640270F59020
:10287C000308E0600A78097903FA1228D3DAFB908E
:10288C0003281228394404F5D97582F27583021293
:10289C0028DF7004E583640270F5900328E0600A79
:1028AC0078297903FA1228D3DAFB75E195900CD7C5
:1028BC0074CEF0A374031229291228E77415F09032
:1028CC0002D7740302297388828983122968A8822B
:1028DC00A98322122968E58264F822F0A374DAF045
:1028EC00A3740312291E12292D122914240EF58209
:1028FC00E438F58374FFF0A3F0A3F0A31229142499
:10290C0014F582E438F58322F09002EFE0F8A3E0AE
:10291C00C822F0900CE5743AF0A374042212292D0D
:10292C0022F0A3743A12293C12293CF0A37404221D
:10293C0012294312294322F0A37404F0A3743A22FF
:10294C00C082C0839002EFE0F8A3E0C82406F582B1
:10295C00E438F583E402253712296D22E0F5D9A37A
:10296C0022E0F8A3E0F922F07F01020B2AC082C01A
:10297C0083E49002DF7808F0A3D8FC9002DF040215
:10298C00253953FDEF53FDDF53F3EF53F3DFC284CF
:10299C00C28553F7DF53F7DF020132EAF8EBF9E8AF
:1029AC0024FF18E934FFF9C3E89401E9122B1B50FA
:1029BC00EE02013274F7120A58E9600553FDEF80FC
:1029CC000543FD10C2847A017B00120230806D74C5
:1029DC00F7120A58E9FE7900120236EE43FD206028
:1029EC0004D2858002C2857901804E74F7120A5890
:1029FC00E9FF7E0874805FF912023CEFC333FFDEFF
:102A0C00F379001202367A027B0012023053FDDF9A
:102A1C007901120236E580FE7A057B001202304302
:102A2C00FD10C2847A017B00120230D2F0EEA2E5D6
:102A3C0030F001B3E433F980031202367F01020B4C
:102A4C002A74F7120A5879011202367E03A28440C6
:102A5C000B7A017B001202301EEE70F1122A9E12CC
:102A6C000230790080D3C082C08379001202367A9A
:102A7C00017B00120230122A9E12023079011202DE
:102A8C003653FDDF7A017B00120230D083D08202F4
:102A9C00013243FD20C2857A017B0022C082C083B3
:102AAC0079001202367901120236A285E433F980DC
:102ABC00DA74F4120A58E9FF75080053FDDF7E073B
:102ACC00120254E96010750A01750B00EE780A12B7
:102ADC0009D5E50A420874FF2E1E122B1A50E17913
:102AEC00001202367901120236EF600553FDDF80C9
:102AFC000543FD20C28579011202367A017B001252
:102B0C0002307900120236A9087F04020B2AC39402
:102B1C0000A2D265D0332274F7120A58E9FE7F0363
:102B2C00120248EEF9120242E970041FEF70F10232
:102B3C002A48C082C08379301202607900120242A6
:102B4C0079001202367A037B0012023053FDDF79D2
:102B5C003112026053FDDF7A057B001202307901DD
:102B6C0012025A79011202367A057B0012023012D7
:102B7C00024E7A057B0012023079301202607A051F
:102B8C007B00120230790F12024279001202367A5F
:102B9C00057B0012023079051202427A057B001285
:102BAC00023012024E7A057B00120230793012028A
:102BBC00607A057B00120230791012024279001201
:102BCC0002367A057B00120230790D1202427A0528
:102BDC007B0012023012024E7A057B001202307911
:102BEC00301202607A057B00120230791112024217
:102BFC0079001202367A057B00120230790012023B
:102C0C00427A057B0012023012024E7A05022A9299
:102C1C0074F7120A58E9FE7930120260EEF91202CA
:102C2C004279001202367A037B0012023053FDDF28
:102C3C00793112026053FDDF7A057B001202307984
:102C4C000112025AE9FF12024EEFF9022A48000063
:102C5C000000000000000000000000000000000068
:102C6C000000000000000000000000000000EAF876
:102C7C00EBF9E824FF1AE934FFFBE84970D00201B4
:102C8C003274F4120A58890A8A0B750801E9C39444
:102C9C0008501378008005C333F50808E8C3950A7B
:102CAC00E50840F342F2EA14600814600914600A63
:102CBC00800C7900800A79108006792080027930A6
:102CCC00900281E0F8E50A4948F5B67EF57F01E50A
:102CDC00B4A2E740197AE87B03120272EE24FF1EBD
:102CEC00EF34FFFFEE4F70E77AFE7BEF8053E50A7F
:102CFC00C39408500674FF650852F2E5BAF508E56E
:102D0C00BBAA08FB122B1A50047A007B00E50B14AB
:102D1C00600814600D14601280188A088B097408FE
:102D2C0080168A088B097406800E8A088B09740435
:102D3C0080068A088B09740278081209B6AA08ABB7
:102D4C0009022B1574F4120A5874FB1209E8E99065
:102D5C000284F075F30075FD409002817480F0756B
:102D6C00800012022A120266900282E4F0A3F07A2A
:102D7C000479071202788A0A8B0B1206F8E50A907E
:102D8C000C5EF0E50BA3F0A37401F0900C5EE01266
:102D9C002E9E900C5AF0900C5EE0122E9D900C59C9
:102DAC00F0900C5FE0FA122E9E900C58F0EA122E66
:102DBC009D900C57F0900C3DE0900C56F0900C3C14
:102DCC00E0900C55F0900C5EE0900C74F0EA900CD6
:102DDC0073F0900C727401F07A5E7B0C12035C74CD
:102DEC0002120A347401F07403120A347464F0A3EE
:102DFC00E4F004120A347402F085188285198314E5
:102E0C00F004120A4E79017A027B0312062674032F
:102E1C00120A4E79027A037B031206267C4D7D0C36
:102E2C0079117A057B031206267C647D0C791C7A59
:102E3C00047B031206267401120A4E79017A067B72
:102E4C0003120626AC18AD1979017A027B0312061F
:102E5C00267C407D067A067B001202907C407D0623
:102E6C007A077B001202907C407D067A087B001268
:102E7C0002907C407D067A097B001202907A017BDD
:102E8C0000900284E0F912059074051209FE022BE1
:102E9C0015C4540FF8743C28F582E4340CF583E027
:102EAC002274F6120A58900282E02401F0A3E03456
:102EBC0000F0900285E004F0A2E05005758040809F
:102ECC00037580007A0479071202788A088B0979D5
:102EDC000212026CE9900C77F0790312026CE99003
:102EEC000C78F0790412026CE9900C79F0790512E7
:102EFC00026CE9900C7AF0790612026CE9900C7B6A
:102F0C00F0790712026CE9900C7CF0790812026CD3
:102F1C00E92417900C7DF0E508900C75F0E509A3F9
:102F2C00F07C647D0C7B1C7A01900284E0F9120227
:102F3C00D27C4D7D0C79117A057B031206267F021B
:102F4C00020B2A74F7120A58EAFEEBFF5480600554
:102F5C00EF6480804BEEA2E05023908048120C7EF0
:102F6C007A027B00900284E0F912060274041209C2
:102F7C00FE7A867B0212062CEE64018021540260DC
:102F8C0022908048120C7E7A027B00900284E0F939
:102F9C0012060274041209FE120284EE6402FAEFA5
:102FAC00FB80047A007B00022A4874F4120A5874DD
:102FBC00FC1209E87F00900C3BE4F0900C38F07E9A
:102FCC007D7508047509007808120C6B7402120ADE
:102FDC004E7A007B00EEF912065674021209FE902E
:102FEC00804C78081208ED851882851983780812B0
:102FFC0006FE7019900C38E0600FF91206C8EEF955
:10300C001206C8900C38E48001EEF0801885188206
:10301C00851983120917E8494A4B7004EEFF8005A5
:10302C00EEF91206C80EEEC3947F4095900C38E072
:10303C007026EF7018797D1206BC900C397404F070
:10304C00A3E4F0900C3BE0601979008017F01206B5
:10305C00CEEFF91206DA800AEF6004F91206C212FA
:10306C0006CE790102310674F7120A5874FC120963
:10307C00E8E9FE851882851983E4F0A3F0A37410A7
:10308C00F0A3E4F0AC18AD19FAFB1206E6900C3B79
:10309C00E07005EE900C38F074041209FE7F01020A
:1030AC000B2A74F4120A5874FF1209E88908900C60
:1030BC003BE070321206627E007F00750A01750BD0
:1030CC0000780A120C6B7402120A4EEEFAEFFBA98E
:1030DC000812065674021209FE851882851983E0BF
:1030EC00F46008900C3B7401F0800B0EEE70010F35
:1030FC00C3EF940840C57401800274041209FE7F6A
:10310C0004020B2A74F4120A5874FF1209E8890895
:10311C007E007F00750A01750B00780A120C6B7427
:10312C0002120A4EEEFAEFFBA908120656740212AE
:10313C0009FE851882851983E0F46007A908120638
:10314C00C2800B0EEE70010FC3EF940840C680A630
:10315C0074F4120A5874FC1209E87EFC7F07750897
:10316C00047509007808120C6B7402120A4EEEFA00
:10317C00EFFB900C38E0F912065674021209FE901F
:10318C00806C78081208ED851882851983780812EE
:10319C0006FE700AEE24FCFEEF12323B50C01235D4
:1031AC0009E8F0A3E9F002310674F4120A5874FC31
:1031BC001209E88908EAFEEBFF8C09EE24FCFEEF0D
:1031CC0012323B4063750A04750B00780A120C6BC3
:1031DC007402120A4EEEFAEFFBA90812065674029C
:1031EC001209FE7402120A341233F68518828519FC
:1031FC008385090AE0650A7002A3E0700AEEC398A1
:10320C00FAEF9400FB8025E9548070AFE82404FAAF
:10321C00E439FBC3EE9AEF9B400EEEC398F8EF999E
:10322C00F9E824FCFEE980987A007B000231063430
:10323C00FFFFC3EE9404EF94002274F0120A58744A
:10324C00F31209E8E9851882851983F0750FFF647C
:10325C007D7005750E7E8003750E7D750A04750BE9
:10326C0000900C39E024FCFEA3E002336F740312CF
:10327C000A34A3E05480600302335E7403120A34F0
:10328C00850F08E065087002A3E0700302335E74DA
:10329C0003120A34E0F50FFCAA0AAB0BA90E1206B6
:1032AC00D48B09EA4509600302335E7405120A34B3
:1032BC001233FCF508EF99F5097407120A34E8F09B
:1032CC00A3E9F07401120A34E4F0A3F0750C047550
:1032DC000D00780C120C6B740B120A4E7403120A4C
:1032EC0034E02508FAA3E03509FB900C38E0F9121C
:1032FC00065674021209FE7409120A4E7401120A5F
:10330C0034E0250AFAA3E0350BFBA90E1206E6748D
:10331C0001120A34E02404F0A3E03400F074071224
:10332C000A34C082C0837401120A341233F6D0837B
:10333C00D082C3E098A3E09950927405120A34E04D
:10334C002404F8A3E03400F9E50A28F50AE50B3962
:10335C00F50B7405120A341233FCF8EF99F9E824D2
:10336C00FCFEE912323B405D900C3BE07077750837
:10337C00047509007808120C6B7405120A4EEEFAEB
:10338C00EFFB7402120A34E0F912065674021209A9
:10339C00FE7403120A34E0F47003A3E0F460030239
:1033AC0032797405120A341233F654806007EE2415
:1033BC00FCFEEF80AEE82404F8500109C3EE98EF50
:1033CC0099508F8020A90E1206BC900C3BE0700A1D
:1033DC00900C39E50AF0A3E50BF08518828519836A
:1033EC00E0F91206C2740D023501E0F8A3E0F922EF
:1033FC001233F6EEC3982274F1120A5874FC1209B7
:10340C00E8890E8A088B098C0C8D0D7413120A3402
:10341C00E0FE8015E5082404F508E43509F509E516
:10342C000C2404F50C5002050DEEFF74FF2F1E0446
:10343C00603D750A04750B00780A120C6B7402124D
:10344C000A4EAA08AB09A90E12065674021209FEFE
:10345C00780A120C6BAC0CAD0D7402120A461205F4
:10346C005474021209FEE970AB900C3B7401F074B9
:10347C00041209FE7F07020B2A74F0120A58890AFB
:10348C00EAFEEBFF8C0E8D0F900C3BE0704D750837
:10349C00017509007808120C6B8E088F097402787C
:1034AC00081209C6890CF50D7409780C1209D5E5BA
:1034BC00082400FAE509350DFB12065C74021209AA
:1034CC00FE7508017808120C6FAC0EAD0FEEFAEF1A
:1034DC00FBA90A1206E074011209FE023504C0822F
:1034EC00C0831206B6E97004790180027900D0839A
:1034FC00D0820201321209FE7F08020B2AEE24044C
:10350C00F8E43FF9900C3922C082C083900359E44F
:10351C00F090035874FFF0900355F0900354E4F0CE
:10352C00900353F0900356F0A3023A0074F4120A7D
:10353C0058900356E0F508A3E0F509E50845097035
:10354C00061203F2023622850882850983E0146094
:10355C000A14600724FE6003023622E0F9120452BA
:10356C008A0A8B0BAE0AAF0BEE65087003EF650988
:10357C00700302361F8E828F83E064016003023673
:10358C002212040A1204B28A088B098C0A8D0B9041
:10359C00802C780812088C7808120C678E828F8326
:1035AC00A3A312090B1212F674041209FEE9705946
:1035BC001204B28A088B098C0A8D0B90801478083F
:1035CC0012088C90801878081208DA8E828F83A3E8
:1035DC00A378081208FC9002D7E0640270258E8252
:1035EC008F83A3A378081208ED9080307808120816
:1035FC008C90801878081208DA1237927808120822
:10360C00FC80061237921236279003557401F0EEA7
:10361C00FAEFFB12044C7F04020B2A74FFF0A3F0A8
:10362C00A3F0A3F02274F0120A58EAFEEBFFEE248A
:10363C0002F8E43FF988088909EE2406F8E43FF91A
:10364C00880A890B8882F583120C82850882850989
:10365C008312090B12049474021209FE850A8285E6
:10366C000B83120C8285088285098312090B1204C4
:10367C008874021209FE12379212090B12049A8EE8
:10368C00828F83E06440701BEE2412F8E43FF988CB
:10369C00828983E0906064F088828983A3E09060E3
:1036AC00658006906064E4F0A3F0900356EEF0A3FE
:1036BC00EFF0EE241AF582E43FF583E0F8A3E0F591
:1036CC00838882120A56906054E412379CA31237F6
:1036DC009C906182E0C2E6F07591BF123788E0647D
:1036EC000170031204D0E5E170FCEE2414F582E4C1
:1036FC003FF583E0F46003E0F5E11237887401F0E4
:10370C009002DDE06401706F1204B28A088B098CA0
:10371C000A8D0B7808120C678E828F83A3A3120973
:10372C000B12135274041209FE8A088B098C0A8D31
:10373C000B908034780C1208ED7808790C12075233
:10374C0074037808120841E50824F4F508E50934F7
:10375C0001F50990034FE060031205B4E4F50AF596
:10376C000B7808120C677A207B009002D6E0F912D5
:10377C00060274041209FE7F08020B2AEE2415F5CA
:10378C0082E43FF58322EE240EF582E43FF583229A
:10379C00123629A3F0A3F02274F0120A5889087487
:1037AC00FF6508707A900354E05407700302393EA9
:1037BC00790412046AE96401701B900358E06404F4
:1037CC007006A3E0640160067A007B0080047A58DE
:1037DC007B03023942790112046AE96401701B907F
:1037EC000358E064017006A3E0640160067A007B74
:1037FC000080047A587B03023942790212046AE988
:10380C006401701B900358E064027006A3E064012D
:10381C0060067A007B0080047A587B030239429060
:10382C000358E065087006A3E0640160067E007F23
:10383C000080047E587F03A90812046AE9640170B1
:10384C0004780180027800E50814600D14606A2485
:10385C00FE70030238E702393E900358E0640270B0
:10386C003CA3E064017041E8A2E0502AA3780C125A
:10387C0008ED908038780C12088C780C120C678E3E
:10388C00828F83A3A312090B1212F674041209FE81
:10389C00E970030239387A587B03023942E0640438
:1038AC007006A3E06401604EE8A2E05006EEFAEF69
:1038BC00FB80047A007B00807D900358E0640470E8
:1038CC0008A3E06401700D802DE064017006A3E094
:1038DC0064016022E8A2E050598051900358E064E2
:1038EC00017008A3E06401703E800BE06402703745
:1038FC00A3E064017031E8A2E0509BA3780C12089D
:10390C00ED908038780C12088C780C120C678E8233
:10391C008F83A3A312090B1212F674041209FEE989
:10392C0060030238A28005E8A2E05006EEFAEFFB35
:10393C0080047A007B0002378374F7120A58E9FE80
:10394C00900359E0705F7401F0EE900358F012048C
:10395C00B2EAF8EBF9ECFAEDFB90035A120923905A
:10396C00035EE4F0A3F090036612362790036C74A8
:10397C0001F0A3F0900372E4F0A3F0900354E04E36
:10398C00F0900353E004F06401600A74806E6005EB
:10399C0074406E700A9003567458F0A37403F07A56
:1039AC00587B0380047A007B007F01020B2AC082C3
:1039BC00C0838A828B83E0F8A3E0F98A828B83E44C
:1039CC00F0A3F088828983A3F088828983E0F4F8DD
:1039DC00900354E058F0900353E014F070149003EB
:1039EC0056E4F0A3F09002D7F0FA9002D6E0F91268
:1039FC0005DE8001F0D083D082020132C082C08308
:103A0C00900353E0600A900356E0FAA3E0FB8004B5
:103A1C007A007B0080DFC082C083E9F8900358E015
:103A2C00687005A3E0F98002790080C9E0F980C5CF
:103A3C00C082C08390035380F374F7120A58740940
:103A4C00120A34123CF3801C8C828D83E08A828BA8
:103A5C0083F08C828D83A3AC82AD838A828B83A30B
:103A6C00AA82AB83E8FEE9FFEE24FF18EF34FFF9DE
:103A7C00EE4F70D4023B8874F5120A58ECF8EDF94D
:103A8C00740B120A34E0F508A3E0F509AC08AD0993
:103A9C00EC24FFF508ED34FFF509EC4D602CEAFC45
:103AAC00EBFD8C828D83A3AA82AB83E8FEE9FF8EAB
:103ABC00828F83A3A882A9838C828D83E0FC8E8263
:103ACC008F83E06C60C67900800279017F03020B62
:103ADC002A74F6120A58E9FE8C088D097808120C23
:103AEC006B8E08AC087D001206F274021209FE02FD
:103AFC003CBE74F6120A58EAFEEBFFEE4F603DEE48
:103B0C002405FAE43FFB1205C68A088B09A808A90C
:103B1C0009E849602788828983E4F0A3F0888289C8
:103B2C0083A3A3EEF0A3EFF088828983A3A3A3A3BE
:103B3C0074FFF0E82405FAE439FB80047A007B007A
:103B4C00023CBEC082C083EA4B7004790580161219
:103B5C003BF160047904800DEA24FBFAEB34FFFBA3
:103B6C001205CC7900D083D08202013274F7120A8C
:103B7C00587C001205728004A2E092AF7F01020B08
:103B8C002A74F7120A58E9FEECFFEA4B6027908082
:103B9C0070E0F8EEC398400712056679038044EA9A
:103BAC0024FBF582EB123D6B123CC37005123BF10A
:103BBC0060071205667905802AEEF074016F700DAE
:103BCC00EAFCEBFD7A7B7B03120584800BEAFCEBB1
:103BDC00FD7A7B7B0312057E7A007B80EEF9120561
:103BEC009079008097EA24FFF582EB34FFF583E0AF
:103BFC00F42274F4120A588908750A00750B007EB9
:103C0C00007F00A2AFE433F509C2AF90037B8011B3
:103C1C00EE4F7004880A890BE824FBF582E9123D0B
:103C2C006B123CC36023E824FFF582E9123D6BE084
:103C3C00650870DCEE4F7006E8FEE9FF80DA7A006A
:103C4C007B80A908120590800D7A007B80A9081250
:103C5C000596EE4F6015780A120C6BEEFCEFFD7AB0
:103C6C007B7B0312058A74021209FEE509A2E0921D
:103C7C00AFEEFAEFFB7F04020B2AE0FAA3E0FB2283
:103C8C0074F7120A58EAFEEBFFA2AFE433FAC2AFA4
:103C9C00123D65E4F0A3F08003123D708E828F8399
:103CAC00123CC370F48E828F83ECF0A3EDF0EA0229
:103CBC003B847F02020B2A123CF3E8492274F71270
:103CCC000A58E5A8FEC2AF8A828B83123CF3123DE0
:103CDC0065E8F0A3E9F08A828B83ECF0A3EDF0EEBB
:103CEC00A2E7A2E7023B86E0F8A3E0F92274F41203
:103CFC000A58A2AFE433FEC2AFEC24FBF8ED34FF5C
:103D0C00F9880889098882F583123CF38A828B83AF
:103D1C00E0F50AA3E0F50BEC650A7003ED650B709A
:103D2C00068A828B838012740C120A34E0FAA3E0A8
:103D3C00CA24FBF582EA123D6BE8F0A3E9F0850892
:103D4C0082850983E4F0A3F0EC24FF123D6874FF34
:103D5C00F0EEA2E092AF023C81EC24FBF582ED3454
:103D6C00FFF58322E824FBF8E934FFF9E8FEE9FFCC
:103D7C002274F7120A58E9FD908070E0F8EDC398B0
:103D8C00502AE5A8FEC2AFED29F8E433F990037D83
:103D9C00E028FCA3E0398C82F583E04AF0A3E04BE9
:103DAC00F0EEA2E7A2E792AF790080027903023B22
:103DBC008874F7120A58E9FE908070E0F8EEC39808
:103DCC005022E5A8FFC2AFEAF4FCEBF4FDEE291299
:103DDC003ECAE05CF0A3E05DF0EFA2E7A2E792AF91
:103DEC00790080027903023B88C082C0831205BA35
:103DFC0090037BE4F0A3F01205EA1205D21205AE93
:103E0C001205C07900023B71C082C0831205A880E4
:103E1C00FB74F4120A587508001205B4120650A867
:103E2C0008E828123ECA123CC3700D050890807039
:103E3C00E0F8E508C39840E7908070E0F8E508C327
:103E4C0098506CE5A8FCC2AFAE08EE2EFEE433FF32
:103E5C0090037DE02EF8A3E03FF988828983123C21
:103E6C008688828983E4F0A3F0ECA2E7A2E792AF04
:103E7C00E508900CF1F0F974002EF58274803FF592
:103E8C0083123EC1120A56900CF174FFF0E5A8F9AA
:103E9C00C2AF90037DE02EF8A3E03F8882F583E06B
:103EAC004AF0A3E04BF0E9A2E7A2E792AF8003123D
:103EBC0005E4023C81E0F8A3E0F583888222F8E473
:103ECC0033F990037DE028FAA3E0398A82F5832246
:103EDC0074F2120A5889098C0C8D0D7508008982B0
:103EEC00AE827F008A0A8B0B780A120CAF02030891
:103EFC008040103F6B3F853FCB3F004017402E402A
:103F0C004C40634074016509600302407B900CF2E5
:103F1C00E0F88C828D83E0900CF2F0E8601CE0609D
:103F2C00030240A3900B9AE0640260030240A3904A
:103F3C000B99E0F91202D80240A3E070030240A3EF
:103F4C00900B9AE064016008E0640360030240A3F4
:103F5C007A017B00900B99E0F91205900240A37452
:103F6C00026509600302407B8C828D831243519061
:103F7C000CF3E8F0A3E9024078E9C3942040030273
:103F8C00407B7C1F7D0079007AF67B0C12055A8EE3
:103F9C000A8F0B780A120C6BAC0CAD0D7AF67B0CFD
:103FAC0012054E74021209FEEE900CF5F07CF67DB3
:103FBC000CFB7A01900B99E0F91202D202409BE9BA
:103FCC00C39420400302407B7C1F7D0079007AA3C0
:103FDC007B0B12055A8E0A8F0B780A120C6BAC0CE9
:103FEC00AD0D7AA37B0B12054E74021209FEEE90F6
:103FFC000BA280787401650970758C828D83E0F852
:10400C00C39405506AE8900BC28061740165097015
:10401C005E8C828D83E0F8C394045053E8900BC3FC
:10402C00804A740665097047750A068F0B780A1268
:10403C000C6B7AC47B0B12054E74021209FE80576E
:10404C007401650970298C828D83E0F8C394085043
:10405C001EE8900BCA80157401650970128C828D54
:10406C0083E0F8C394045007E8900BCBF0802875DC
:10407C0008188023C3EA9427EB9400501774026548
:10408C000970118C828D83E0FCA3E0FD120290E993
:10409C00F5088003750802A9087F06020B2A7F0425
:1040AC00020B2A74F6120A58900B9AE07037EA4BFE
:1040BC006008900BCCEAF0A3EBF0E4F508F5097876
:1040CC0008120C6B7808120C6B7C007D007B009046
:1040DC000B9BE0FA900B99E0F91206447404120958
:1040EC00FE7900800279117F02020B2A74F7120A02
:1040FC0058E9900B99F0900B9AE4F012031A900B7C
:10410C009B7401F0900BC27403F0900BC3E4F0901D
:10411C000BCA7407F0900BCBE4F07F01020B2A74EE
:10412C00F4120A5874F61209E8EAFEEBFF548060A8
:10413C002C900B99E0F91205788A088B09EA45094D
:10414C0060138A828B83E064D0700312063EAA0847
:10415C00AB09120566EEFAEF6480024200EEA2E0B3
:10416C004003024203900CF2E070030241FB900BFF
:10417C00C2E0851882851983F0900BC3E0C0E0740F
:10418C0001120A34D0E0F07508067509007808129F
:10419C000C6B7CC47D0B7404120A34AA82AB8312A0
:1041AC00054E74021209FE900BCAE0C0E0740812AE
:1041BC000A34D0E0F0900BCBE0C0E07409120A3462
:1041CC00D0E0F0AA18AB19900B99E0F91202CCE9E7
:1041DC00601D900B9A7404F012420F601212434847
:1041EC0088828983E582458360057904120A56EE3C
:1041FC006401FAEFFB80047A007B00740A1209FE5A
:10420C000240AA900BCC124351E8492274F4120AD2
:10421C00588A828B83A3A3E0F8EA2403FCE43BFDD9
:10422C008A828B83A3AE82AF83E8601224FE60691E
:10423C001470030242F91470030242F98058E070C2
:10424C00317508067509007808120C6B7A9C7B0B8B
:10425C0012054E74021209FE900B9A7401F07CF652
:10426C007D0C900CF5E0FB7A01900B99E0F91202B1
:10427C00D2E96006900B9A7404F012420F60171288
:10428C004348E8FAE9FBEA4B600C900B9AE0F98A98
:10429C00828B83120A560240AAE070488C828D836E
:1042AC00E0601B7CA37D0B900BA2E0FB7A00900BD3
:1042BC0099E0F91202D2E98E828F83F08026900B5E
:1042CC009AE06402601E7A017B00900B99E0F9126F
:1042DC000614EA4B4C4D700C7A017B00900B99E064
:1042EC00F91205908E828F83E0708980A9E070842A
:1042FC007403687008900B9A7402024285900CF358
:10430C00124212900CF2602AE06029900CF3E0F556
:10431C0008A3E0F509E4F50AF50B7808120C677AA6
:10432C00017B00900B99E0F912060274041209FE4D
:10433C008002E4F0900B9A7403024285E0F58388C6
:10434C008212435122E0F8A3E0F92274F7120A58C2
:10435C00900B95124368F07F01020B2AE4F0A3F056
:10436C00A3F0A32274F1120A58890EEAFEEBFF1295
:10437C0005F6740F120A3478081208EDEA4B600D3A
:10438C008A828B83A3A378081208FC806A7A0D7B3F
:10439C00001205C6EA4B605B8A828B83A3A3A3A39E
:1043AC00A3A3A3A3E50E124408EEF0A3EFF08A82B8
:1043BC008B83A3A378081208FC8A828B83E4F0A376
:1043CC00124408A3A3A3124369F0900B9312475C09
:1043DC00900B936017E0FCA3E08003E8FCE9FD8CF4
:1043EC00828D8312475C70F38C828D83EAF0A3EB91
:1043FC00F080047A007B007F07020B2AF08A828B04
:10440C0083A3A3A3A3A3A322C082C083900B9380F6
:10441C00048C828D83E0FCA3E0FDEC4D60238C8248
:10442C008D83A3A3A3A3A3A3E06A7003A3E06B7083
:10443C00E08C828D83A3A3A3A3A3A3A3A3E06970A1
:10444C00D0ECFAEDFB02455DC082C083EA4B600EF6
:10445C008A828B83A3A3A3A3A3A3E4F0A3F00245B6
:10446C005D74F6120A58E5A8FFC2AF740A120A343A
:10447C00120C7E1205F074041209FE8B09A909EFC7
:10448C00A2E7A2E792AFEA496004790080027908BA
:10449C007F02020B2A74F2120A58A2AFE433FEC256
:1044AC00AF740E120A3478081208ED7808120C67F3
:1044BC001205F074041209FEEA4B60128A828B8397
:1044CC00A3A3A3A3A3A3A3A3A378081208FCEEA2FF
:1044DC00E092AFEA4B60047900800279087F060213
:1044EC000B2A74F4120A58A2AFE433F509C2AF12C6
:1044FC0005F68A0A8B0BAE0AAF0BEE4F6003120562
:10450C00FCE509A2E092AFEE4F60047900800279DD
:10451C00067F04020B2A74F2120A587508007509FA
:10452C0000750A00750B00A2AFE433FEC2AF120592
:10453C00F68A828B83E58245836007A3A3780812F1
:10454C0008EDEEA2E092AFAA08AB09AC0AAD0B8065
:10455C008CD083D08202013274F0120A5874F91292
:10456C0009E88A088B098C0A8D0B7403120A3478BB
:10457C00081208FCE5A8F9C2AF900B957808120850
:10458C009FE9A2E7A2E792AF900B9312475C7003EE
:10459C0002474C900B93E0FEA3E0FF7401120A3427
:1045AC00E4F0A3F0750C00750D00A2AFE433851890
:1045BC0082851983F0C2AFEE2402F50EE43FF50FAD
:1045CC007405120A3412475C70257404120A34E024
:1045DC00701D7403120A34E0F88E828F83A3A3E05B
:1045EC00C398400B8E828F83A3A3E0C3988037853A
:1045FC000E82850F8378081208ED7403120A347842
:10460C000812072350177403120A3478081208EDA5
:10461C00850E82850F8378081208C6800A850E8263
:10462C00850F83124368F0EE2404F50AE43FF50B82
:10463C001247567054850A82850B8312475C704E64
:10464C00EE2409F508E43FF509850882F583120983
:10465C0017E8494A4B604F8E828F83A3A3A3A3A371
:10466C00A31247CB60408E828F83A3A3A3A3A3A3E3
:10467C00A3A3E0F912059085088285098312091716
:10468C00850E82850F83120923124756700B850AFB
:10469C0082850B8312475C600D8E828F83A3A3A34C
:1046AC00A312475A702E8E828F83E0F8A3E0F97420
:1046BC0001120A341247CB7005900B93800B7401D6
:1046CC00120A34A3E0F5838A82E8F0A3E9F08E0C99
:1046DC008F0D800A7401120A34EEF0A3EFF08E8273
:1046EC008F83E0FEA3E0FF851882851983E0A2E0AA
:1046FC0092AFE50C450D6041850C82850D83124708
:10470C005A702F850C82850D83A3A312475A7022F1
:10471C00850C82850D83A3A3A3A3A3A31247C585F0
:10472C000C82850D83A3A3A3A3A3A3A3A3E0F912D7
:10473C000590AA0CAB0D1205CCEE4F60030245B0F0
:10474C0074071209FE7F08020B2A8E828F83A3A3A3
:10475C00E0F8A3E0F9E8492274F0120A58900B93A0
:10476C0012475C603D900B931247C5750C8E750D0E
:10477C00C2750EF5750F288A828B83A3A378081255
:10478C0008ED780C7908120713500C85080C850974
:10479C000D850A0E850B0F8A828B831247CB600E18
:1047AC0080D5750C00750D00750E00750F00AA0CE8
:1047BC00AB0DAC0EAD0F024751E0FAA3E0FB221299
:1047CC0047C5EA4B22A2AFE433F8C2AF5394FEE5DF
:1047DC0094A2E240FAE8A2E092AF75A70075A1009E
:1047EC00759CFF75C30075A20075A30075A40075B8
:1047FC00A50075A60075C31175A20075A30075A45C
:10480C000075A50075A60075C33375A20075A300CD
:10481C0075A40075A50075A60075C34475A2007536
:10482C00A30075A40075A50075A60075C32275A21A
:10483C002075A34E75A40075A50075A60075940887
:10484C00A2AFE433F8C2AF439401E594A2E250FA6C
:10485C00E8A2E092AF439402020132A2AFE433F833
:10486C00C2AF5394FEE594A2E240FAE8A2E0024AF9
:10487C0085A2AFE433F8C2AF439401E594A2E250B1
:10488C00FA80E8E9A2E7E433F8E9A2E792AF8025E1
:10489C0075C303851882851983E0F5A2740122E99A
:1048AC00A2E7E433F8E9A2E792AF85188285198371
:1048BC00E0FAA3E0FB74020249E2F59CE9A2E7E40A
:1048CC0033F8E9A2E792AF0249E0C082C08374FCDE
:1048DC001209E812499D75C333124991120A341218
:1048EC00490C120A34E0F5A67404120A34E0F5A25D
:1048FC007405120A34E0F5A375A1BF43A74080BC30
:10490C00E0F5A5740222124A49A9A8C2AF22C082BE
:10491C00C08374FE1209E812493D75A1FD12489C32
:10492C00120A34E0F5A3E59C54F04401F59C0248CE
:10493C008F12494453A7FD22851882851983EAF00A
:10494C00A3EBF0A9A8C2AF22C082C08374FC1209E9
:10495C00E812499D75A1BF439C0F75C33312499151
:10496C00120A3412490C120A34E0F5A67404120A25
:10497C0034E0F5A27405120A34E0F5A3E59C54F07A
:10498C0044080248C6851882851983E0F5A4740191
:10499C002212491253A7BF22E5A4851882851983D8
:1049AC00F0E5A5C0E07401120A34D0E0F0E5A6C031
:1049BC00E07402120A34D0E0F07403120A34E4F00A
:1049CC00E9A2E7E433F8E9A2E792AF8518828519EA
:1049DC008312090B74041209FED083D082020132B7
:1049EC0074F4120A5874FC1209E8124A49A2AFE492
:1049FC0033F9C2AF53A7DF75A1DF90806C78081232
:104A0C0008ED85188285198378081206FE70054317
:104A1C009CF0801A75C340124991120A3412490C49
:104A2C00120A34E0F5A6E59C540F4450F59CE9A21B
:104A3C00E092AF74041209FE7F04020B2A851882DF
:104A4C00851983EAF0A3EBF0A3ECF0A3EDF022A917
:104A5C00A8C2AF53A7098015A9A8C2AF53A709755F
:104A6C009CFF8009A9A8C2AF439C0F800375A109C4
:104A7C00E9A2E7E433F8E9A2E792AF020132A3A37B
:104A8C00A3E4F0E8A2E7E433F9E8A2E792AF024925
:104A9C00E5C082C08374FC1209E8A9A8C2AF75C333
:104AAC0000E5A20249A4C082C083A8A8C2AF75C306
:104ABC0000E5A28A828B83A3A3A3A3F0E5958C8245
:104ACC008D83F0E5A38A828B83A3A3A3A3124AF957
:104ADC00A3A3A3E4F0E5968C828D83A3F0E5978CD9
:104AEC00828D83A3A3F08C828D83024A8AA3F0E586
:104AFC00A48A828B83F0E5A5A3F0E5A68A828B833A
:104B0C00A3A3F08A828B8322C082C08374FC120917
:104B1C00E8A9A8C2AFE595851882851983F0E596BA
:104B2C00C0E07401120A34D0E0F0E5970249BBC032
:104B3C0082C08374FE1209E8A9A8C2AFA8C375C3CA
:104B4C0000E5A2E5A4851882851983F0E5A5C0E0EF
:104B5C007401120A34D0E0F088C30248ABC082C0A2
:104B6C0083C3EA9427EB9400501674FF6C700374A3
:104B7C00FF6D600C124BADECF0A3EDF079008002F0
:104B8C007902024CC1C082C083C3EA9427EB940023
:104B9C005008124BAD124CC880047AFF7BFF024CBC
:104BAC00C1EA2AFAEB33FB74812AF582740C3BF5CB
:104BBC00832274F7120A58E9FEEAFF7C107D007913
:104BCC00007A8F7B0212055AEE900C80F0EF900267
:104BDC008AF012033EE9F990028F70057401F0809F
:104BEC0004E4F079127F01020B2A74F6120A58E9D8
:104BFC00FF7E00701EEA4B601A7508068E09780855
:104C0C00120C6BEAFCEBFD7A967B0212054E7402D9
:104C1C001209FE90028FE0640170147E01EF70089F
:104C2C007402F01203928007E4F0EFF91202BAEE6C
:104C3C00F97F02020B2A74F6120A587E00EA4B60C6
:104C4C003F8A828B83E0F97021A3E0F5088A828B7E
:104C5C0083A3A3E0FDE50890029CF0A3EDF08A820B
:104C6C008B83A3A3A3E090029EF090028FE06402DA
:104C7C00700E7E01E9700474038001E4F01202BA34
:104C8C0080ADC082C083E9F87900EA4B6025E8600A
:104C9C0022EA2405F582E43BF5837401687005E093
:104CAC0044C0800CE0543FF07403687004E0D2E61A
:104CBC00F079018000D083D082020132E0FAA3E0C7
:104CCC00FB2274F4120A588908900C80E0F4604FAF
:104CDC007A0A7B001205608A0A8B0BAE0AAF0BEEC8
:104CEC004F603C124DF47408F090028BE08E828F72
:104CFC0083A3A3A3F0750A06750B00780A120C6B3C
:104D0C007C9F7D02EE2404FAE43FFB12054E7402F4
:104D1C001209FEEEFAEFFB900C80E0F912056C9094
:104D2C00028EE06401703A9002AE124D72E8496056
:104D3C0019E0F5838882A3A3A3A3124D72888289FC
:104D4C0083E58245836003120A56908024120C7E00
:104D5C007A047B009002ADE0F91206087404120983
:104D6C00FE7F04020B2AE0F8A3E0F92274F4120A85
:104D7C00588908900C80E0F4606B7A0C7B0012056B
:104D8C00608A0A8B0BAE0AAF0BEE4F6058124DF4D3
:104D9C00E4F0750A06F50B780A120C6B7C967D0212
:104DAC00EE2403FAE43FFB12054E74021209FE9046
:104DBC00029C124D728E828F83A3A3A3A3A3A3A3E1
:104DCC00A3A3E8F0A3E9F090029EE0C0E0EE240B70
:104DDC00F582E43FF583D0E0F0EEFAEFFB900C8027
:104DEC00E0F912056C024D6D8E828F8374D0F0A3A6
:104DFC00E508F08E828F83A3A32274EE120A588AE0
:104E0C00088B09890B8C0E8D0F900377E07009903D
:104E1C000379E07003024ED39002B2E06003024EBD
:104E2C00D3890C750D00E92407FAE43400FB120554
:104E3C00608A108B11AE10AF11EE4F7003024EE46E
:104E4C0074186508700474206509600C7417650883
:104E5C007004742065097010900379E0600AF50AFB
:104E6C008E828F837492800C900377E0F50A8E8289
:104E7C008F837491F0A3740E125095740112509D8F
:104E8C00E508F0A3E509F0EE2405F8E43FF9E8FAAB
:104E9C00E9FBEE2407F8E43FF98A828B83E8F0A360
:104EAC00E9F0780C120C6BAC0EAD0F8A828B83E0A0
:104EBC00FAA3E0FB12054E74021209FEEEFAEFFBA8
:104ECC00A90A12056C8011780E120C6BAC0B790EC2
:104EDC0012038074021209FE7F0A020B2A74F2126A
:104EEC000A5889098A0A8B0B8C0874072CFA74FFF0
:104EFC0065096004780380027802E82AFA7B0012C4
:104F0C0005608A0C8B0DAE0CAF0DEE4F700302508A
:104F1C00048E828F837401F0A374FFF0EE2402FAE6
:104F2C00E43FFBEE2404F8E43F125009E50912506B
:104F3C006FE02402F8A3E03400F9890DE50BF97455
:104F4C000E120A3412503474FF6509602E74032556
:104F5C00088882850D8312506F12503A12507FE5EB
:104F6C000AF012508CE9F085080A750B00780A12C9
:104F7C000C6B8A828B83E02406806374022508887C
:104F8C0082850D83F08C828D83E0C0E08A828B83D6
:104F9C00125025D0E0F08C828D83A3E0C0E012503B
:104FAC007FD0E0F08C828D83A3A3E0C0E012508C04
:104FBC00D0E012506F12506112506D125055E9F042
:104FCC00E50824FDF50AE434FFF50B780A120C6BA6
:104FDC00EC2403FC50010D8A828B83E02408FAA395
:104FEC00E03400FB12054E74021209FEEEFAEFFBE0
:104FFC00900375E0F912056C7F06020B2AF98A8280
:10500C008B83E8F0A3E91250731250418A828B8390
:10501C0012502022125048A3221250292212502D35
:10502C002212504CA3A3A322E0FCA3E0FD221250B9
:10503C00297401F0221250487404F02212504C22B0
:10504C00E0F8A3E0F5838882221250792407F582D8
:10505C00E438F583221250792406F582E438F5837E
:10506C0022E50A12507322F08A828B8322E0F8A385
:10507C00E0C8228A828B831250872212502DA322E1
:10508C008A828B83125087A322F08E828F83A3A3F4
:10509C0022125095A32274F0120A5875E181120461
:1050AC00E8E97008900303E0F91204EE79011204A8
:1050BC006AE964016003025162900349E0F8A3E0DD
:1050CC00F9E84960061251FF120590900307E0645D
:1050DC0001705B12524A4406F5D97582F27583024F
:1050EC0012521A7004E583640270F5900308E060B4
:1050FC000A78097903FA12520DDAFB90032812523E
:10510C004E4404F5D97582F275830212521A70045A
:10511C00E583640270F5900328E0600A782979032E
:10512C00FA12520DDAFB75E195900307E4F01204C4
:10513C002812525D12088C12522312087990801892
:10514C00780C1208DA8A828B83780C1208FC1252C3
:10515C008874151252371204467F08020B2A74F019
:10516C00120A5875E1811204E8E97008900303E013
:10517C00F91204EE790112046AE964017072900369
:10518C0049E0F8A3E0F9E84960061251FF120590D6
:10519C00900307E06401703012524A4402F5D9754D
:1051AC0082F275830212521A7004E583640270F560
:1051BC00900308E0600A78097903FA12520DDAFBC1
:1051CC0075E195900307E4F012042812525D120861
:1051DC008C125223120879908018780C1208DA8AF3
:1051EC00828B83780C1208FC12528874141252377A
:1051FC00025162900349E0FAA3E0FB900348E0F906
:10520C002288828983E0F5D9A3A882A98322E0F5BC
:10521C00D9A3E58264F822900300E0F508A3E0F539
:10522C0009E4F50AF50B780C7908221252B8241A05
:10523C00F582E438F583741CF0A37404F02275E154
:10524C0091A3E02407F5D99002F1E0C4333354C0A4
:10525C0022E9FC9002EFE02402F8A3E03400F9E824
:10526C00FAE9FB8A828B83EC75F0118485F0088552
:10527C00080CE4F50DF50EF50F780C229002EFE01A
:10528C00F8A3E0C82406F582E438F583E41252B69C
:10529C00240EF582E438F58374FFF0A3F0A31252C8
:1052AC00B62414F582E438F58322F0A3F09002EFD3
:1052BC00E0F8A3E0C822C082C08353BFEF7901128B
:1052CC00046AE96401700C7AEF7B0212045E9002AE
:1052DC00FFE4F075E1F1120446D083D08202013272
:1052EC00C082C0831204D61204D0025510C082C0F2
:1052FC00839061B1E0C2E0F0E04403F0906188E09B
:10530C00640470F8025510C082C0839061C0E0FA4A
:10531C00E4F0F8F9E82400F582E93460F583E4F070
:10532C0008E8700109C39480E9940140E7EA9061B0
:10533C00C0F090618A740102550BC082C0838A82CE
:10534C008B83E0906016125454A3E09060171253B4
:10535C008490601812538D90601912539290601AB9
:10536C0012539790601BF0E99060157005E0C2E055
:10537C008003E0D2E002550FF08A828B83A3A3E076
:10538C00221253A2E02212539DE02212539DA3E05D
:10539C00221253A2A322F08A828B83A3A3A322748A
:1053AC00F0120A58EA906005F0EBA3F0ECA3F07F42
:1053BC0008020B2AC082C083906001E0025430C006
:1053CC0082C08374075990600102550FC082C0835C
:1053DC007401699060037005E0D2E08003E0C2E0E4
:1053EC0002550FC082C083906003E054F949025506
:1053FC000FC082C083906061E002543074F0120AD6
:10540C0058EA9061951254A10253B9C082C083909E
:10541C000374E4F0906022F0A3F0A37830F0A3D8EA
:10542C00FC025510F9025510C082C083906014E044
:10543C0054FCF0E04902550FC082C083906009E42F
:10544C0002550F9061C07401F08A828B8322C08256
:10545C00C0837A007B60E970027A3312544FE4F017
:10546C00A3F0A3F09061C002550FC082C083E990F5
:10547C00600202550FC082C083E99060027005E0A3
:10548C00D2E38003E0C2E302550FC082C083E990EF
:10549C0061C602550FF0EBA3F0ECA3F0ED22C08235
:1054AC00C083E9601714601C14601E146023146020
:1054BC002514602A14603314603C80419061E9E04B
:1054CC0054FC80389061E9801C9061E9E0C2E08076
:1054DC002B9061E9801B9061E9E0C2E1801E906134
:1054EC00E9E0C2E1F0E0D2E080129061E9E0C2E0D4
:1054FC00F0E0D2E180069061E9E04403F08005F031
:10550C00A3F0A3F0D083D082020132C082C0837496
:10551C00F91209E87401120A34AA82AB831203AAA5
:10552C001255D279077A097B1012037A7900740725
:10553C0002561074F7120A5874FF1209E8740F120D
:10554C000A3412558D120C6F740F120A3412558DC9
:10555C00120C6F740E120A34120C82740F120A346D
:10556C0012558D120C6F740F120A3412558D120CC9
:10557C006F1203B074061209FE1255E37A06025537
:10558C00FFE0F50878082274F7120A5874FF120924
:10559C00E81203B61255E37A080255FF74F7120AA3
:1055AC005874FF1209E81203C21255E37A09025526
:1055BC00FF74F7120A5874FF1209E81203BC125553
:1055CC00E37A0A0255FFE98518828519831255DDA5
:1055DC0022F0AC18AD1922E9851882851983125571
:1055EC00DD7901221209FE7F02020B2A7900740375
:1055FC000256107B2012037A790074011209FE7F87
:10560C0001020B2A1209FED083D082020132E91268
:10561C0055DD790322C082C08374FD1209E8851818
:10562C0082851983740CF07401120A347404F0121C
:10563C0003C87402120A3412561A7A0C7BFC120339
:10564C008C900376E060087A007B40F9120590029A
:10565C0055F874F6120A5874F71209E88518828501
:10566C001983E4F0750808F5097808120C6BEAFC4C
:10567C00EBFD7403120A34AA82AB8312054E74023A
:10568C001209FEAC18AD1979097A187B2012037A2D
:10569C0074090255F0C082C08374FD1209E88518A4
:1056AC0082851983E4F004120A347404F074021233
:1056BC000A34E412561BFA7BFC12038C0255FAC016
:1056CC0082C08374FD1209E88518828519837401E0
:1056DC00F0120A347404F07402120A34E412561BE9
:1056EC007A0180D3C082C08374FD1209E8851882C8
:1056FC008519837416F07401120A347404F0740260
:10570C00120A34E412561B7A160256C3C082C083A6
:10571C00900B87E4F0A3F0900B897489F0A37403C9
:10572C00F09003897448F0A37402F09005D1F0A3B3
:10573C007480F0A374B4F0A37405F0D083D082020B
:10574C00013274F6120A587A017B001205C6E5A8DC
:10575C00FEC2AFEA24FEF8EB34FFF9900B89E8F0B7
:10576C00A3E9F01205CC900B8B7401F0EEA2E7A22A
:10577C00E792AF7F02020B2A74F2120A587C007D6A
:10578C00007F00EA2402FAE43BFBA2AFE433FEC242
:10579C00AF900B8BE06008EA9411EB9400500A90E8
:1057AC000B89E0F8A3E0F9800478D3790588828925
:1057BC0083E0F508A3E0F509548060057F000258EA
:1057CC0061EFA2E0507C8C828D83E0F50AA3E0F5BA
:1057DC000B5480F50DE50A2508F508E50B35095441
:1057EC007FF509E50D4509F5098C828D83E508F0F7
:1057FC00A3E509F0547FF509C3E5089AE5099B4038
:10580C0054ECF8EDF9E84970030258CF888289838B
:10581C00E0FCA3E0547FFDECC39AFCED9BFDC3ECD4
:10582C009404ED9400405DE82AF582E93BF583ECA5
:10583C00F0A3EDF0EB4480FB88828983EAF0A3EBC4
:10584C00804AE509547FFDC3E5089AED9B50B67F6D
:10585C0001E8FCE9FD88828983E0F508A3E0547F28
:10586C00F509E82508F8E93509F988828983E0F516
:10587C0008A3E0F509E508450960030257B978006B
:10588C007900803F88828983A3E04480F0900B8B61
:10589C00E06029900B89E0FAA3E0FBE86A7002E96A
:1058AC006B701988828983E0FAA3E0547FFBE82AA5
:1058BC00FAE93BFB900B89EAF0A3EBF0E82402F841
:1058CC00500109EEA2E092AFE8FAE9FB7F06020B69
:1058DC002AC082C083EA24FEF8EB34FFF9A2AFE4BD
:1058EC0033FCC2AF88828983A3E0547FF0900B898C
:1058FC00E0FAA3E0FBE89AE99B5008900B89E8F0EA
:10590C00A3E9F0ECA2E092AF025747C082C083E952
:10591C00900CD6025AFA74F7120A58E99002ADF0BC
:10592C001205487F01020B2A74F4120A588A088B5C
:10593C0009EB548060799002ADE0F91205788A0A7F
:10594C008B0BAE0AAF0BEE4F605C8E828F83E064E4
:10595C00917039A3E024F2602924D0702F750A01CC
:10596C008E828F83A3A3E06402700F125AEB600D3A
:10597C001259FF6008120A568003750A00850A0B3B
:10598C008006120332E9F50BE50B7013900CD6E090
:10599C00F4600CEEFAEFFBE0F912056CE96007EE2F
:1059AC00FAEFFB120566AA08E5096480FB803FEA62
:1059BC00A2E05017125AEB600C1259FF60077A00E4
:1059CC007B00120A56E5086401801A5402601B9091
:1059DC0002AE125AEE600A1259FF60057901120AE2
:1059EC0056E5086402FAAB0980047A007B007F0458
:1059FC00020B2A125AD4A3A3125ACAE58245832257
:105A0C00790002013274F4120A587E018A828B8367
:105A1C00A3A3A3E0F508A3E0F50985080AF50B7824
:105A2C000A120CF5010008200A20AC5A07000910D4
:105A3C00745A0220615A0520585A0620AC5A0B2081
:105A4C00955A0C20905A0E20C55AC35A125ADAF99C
:105A5C001202B480648A828B83A3A3A3A3A3E0FA6B
:105A6C00A3E0FB1202A8804B8A828B83A3A3A3A37F
:105A7C00A3125ACAA3AA82AB8388828983E0F91243
:105A8C0002A2802F125ADA6030125AEB602B125A93
:105A9C00D4125A046023EAFCEBFDAA08AB0980106F
:105AAC009002AE125AEE6011125AD4125A046009C6
:105ABC00120A56E9FE80027E00EEF90259FAE0F86D
:105ACC00A3E0F98882898322E0F5838882228A8286
:105ADC008B83A3A3A3A3A3E0F8A3125AD4E0229030
:105AEC0002B0E0F8A3E0F9E84922EAF0A3EBF0D029
:105AFC0083D082020132C082C0839002AE80EB74EC
:105B0C00F0120A5874F81209E88A088B098C0A8D6D
:105B1C000B9080547808120733500C7508407509A7
:105B2C009C750A00750B00AC18AD197404120A466A
