:020000040000FA
:0600000002011A020EB11C
:03002B00021407B5
:030033000213E9CC
:03005300020F2772
:03006B000213C0BD
:10008300020DB3E5C754F84401F5C7790122000016
:100093000080FB120086B90003020104E4791B7897
:1000A30002B800028004F709D8FCE4791D7802B88D
:1000B30000028004F709D8FCE490028178BD790A34
:1000C3008002F0A3D8FCD9FA781A90014A7A01BACF
:1000D30000028007E493A3F608DAF97A3D7B0C90DB
:1000E300014B78E079018015E493A3AD82AE838A56
:1000F300828B83F0A3AA82AB838D828E83D8E9D9C6
:10010300E77582EF758367740012012C7582917510
:100113008300740012012C75D00075813F7518811E
:10012300751902759F00020096C09FF59FE473D076
:100133009F22D083D082C09FE493C0E0740193C018
:10014300E0740293F59F2201303132333435363770
:100153003839414243444546200D094241544D4FED
:100163004E313030364235020A00B50610CBEB80F3
:100173000201050303B0FB13FF000180EBCB100664
:10018300B50000000000090000380000FF0000B4C3
:10019300000028002800283075A000A000A000A0BF
:1001A3000000080008E001F000100010001000102B
:1001B300001000100050005000500010001000D03C
:1001C300070000000000000F000100050030750764
:1001D300001000010081FF00000000FFE4020203A1
:1001E300EA02FF3A043A043A043A043A043A043A73
:1001F300043A043A043A043A043A043A04FF013054
:10020300750302010400000000000000000000006C
:1002130000000000000000000000000000000000DB
:1002230000FF0001000000120135691C00120135B6
:10023300821C001201359B1C00120135B61C0012F2
:100243000135D21C00120135281D001201354D1D48
:1002530000120135831D00120135981D001201356E
:10026300FE1D00120135191E00120135981F0012E0
:100273000135C81F00120135FB1F00120135BE20D6
:10028300001201351B22001201351D230012013516
:100293005C4C00120135844C00120135B14C001244
:1002A3000135E94C00120135354D00120135814D00
:1002B30000120135C14D001201356B4E001201359C
:1002C300E36300120135FA6300120135842300123F
:1002D30001356E24001201351925001201356A25F6
:1002E300001201351A26001201358B260012013542
:1002F300702700120135A427001201359D28001232
:100303000135DA2800120135B62900120135F52925
:1003130000120135112A001201350A5A0012013563
:10032300155A00120135275A00120135FF5A0012DF
:100333000135045B00120135F55B001201350A56E5
:10034300001201353256001201358656001201356E
:100353009B5600120135B056001201351457001296
:100363000135515700120135945700120135BE571C
:1003730000120135E35700120135F94E0012013521
:10038300DC4F001201352761001201356A6100124A
:100393000135FF6600120135341400120135CA1508
:1003A30000120135A0160012013542170012013563
:1003B300B517001201355319001201358F190012B8
:1003C30001351A1B001201355F1B001201359551CF
:1003D300001201355D5200120135B553001201358B
:1003E300722A00120135F32A00120135202B001264
:1003F3000135652B001201355C2C00120135AA2C46
:1004030000120135262E00120135A32E00120135EC
:10041300082F00120135792F0012013567300012C1
:100423000135943000120135045F00120135105F6D
:1004330000120135E45F001201350B68001201352B
:100443000736001201352B3600120135243700120E
:100453000135973800120135383A00120135AD3AAB
:1004630000120135FB3A00120135153B001201352C
:100473002F3B00120135C448001201355A490012BE
:100483000135704900120135C949001201350D4A81
:1004930000120135474A00120135DF4A00120135C7
:1004A3004E4B00120135574B00120135634B0012BE
:1004B3000135904B00120135A54B00120135074C55
:1004C300001201352E4C00120135DF5300120135A5
:1004D300EC53001201350654001201353954001251
:1004E30001359E5400120135B35400120135BE5438
:1004F30000120135CB5400120135E25400120135CC
:10050300F05400120135FB54001201350A55001254
:1005130001352755001201353755001201354D5568
:100523000012013569550012013574550012013569
:100533008955001201359D5500120135D36500120E
:100543000135FF65001201355A6600120135383B4B
:1005530000120135763B00120135D03B0012013504
:10056300F13B00120135423C001201356B3C001295
:100573000135803C00120135F13C001201357F3D0D
:1005830000120135BC3D00120135EC3D001201356E
:10059300703E00120135B03E00120135E83E0012F4
:1005A3000135073F00120135103F0012013548673E
:1005B300001201352262001201350B580012013579
:1005C300415800120135775800120135D0590012F5
:1005D30001352F65001201354565001201354F6560
:1005E30000120135A565001201354A440012013598
:1005F30063440012013507450012013547450012D7
:100603000135604500120135944500120135E1457D
:100613000012013515460012013557460012013507
:10062300574800120135CF3F00120135A241001295
:100633000135EB41001201351E42001201350B4317
:1006430000120135B567001201358A6400120135C5
:10065300FF6700120135236000120135A860001204
:1006630001350E6100120135236300120135436326
:10067300001201359C6300120135D6630012013567
:10068300D9630012013505680012013508680012AC
:100693000135F87F00120135FE5B00120135775DED
:1006A300001201356C6600120135D85D0012013568
:1006B300025E00120135A9300012013566310012C5
:1006C3000135A131001201350332001201354F32D9
:1006D30000120135A83200120135393300120135F9
:1006E300F63400120135783500120135DD3500127C
:1006F3000135896700120135D76700E0667010087D
:10070300A3E066700A08A3E066700408A3E066220B
:10071300C3E7960809E7960809E7960809E79622CA
:10072300C3E09608A3E09608A3E09608A3E0962208
:10073300C008C3E096F50808A3E096420808A3E0C2
:1007430096420808A3E09645087001D3D008220812
:100753000808EAC0E0EBC0E086F0E7A4FA180986CF
:10076300F0E7A42AFA180986F0E7A42AFA180986FA
:10077300F0E7A42AFA1986F0E7A4FBE5F02AFA19B0
:100783000886F0E7A42BFBE5F03AFA190886F0E7B0
:10079300A42BFBE5F03AFA18180986F0E7A4C5F094
:1007A3002BFBE43AFA1908E7C5F0C6A426F6E5F0F0
:1007B3003BFBE43AFA1886F0E7A4F6E5F00826F6E0
:1007C300E43B08F6E43A08F6D0E0FBD0E0FA22E492
:1007D300CFC0E0E4CEC0E0E4CDC0E0E4CCC0E0753F
:1007E300F020E626F608E633F608E633F608E633A5
:1007F300F6181818EC33FCED33FDEE33FEEF33FF40
:10080300C3EC9709ED9709EE9709EF97191919406A
:100813000FFFEC97FC09ED97FD09EE97FE191906FA
:10082300D5F0BFECF709EDF709EEF709EFF7191962
:1008330019D0E0FCD0E0FDD0E0FED0E0FF2260164E
:10084300080808C6C313C618C613C618C613C618A5
:10085300C613C6D5E0EA22700908080822601618F4
:100863001818C6C333C608C633C608C633C608C677
:1008730033C6D5E0EA22E627F60809E637F6080983
:10088300E637F60809E637F622E026F608A3E0364F
:10089300F608A3E036F608A3E036F622E026F008D1
:1008A300A3E036F008A3E036F008A3E036F022C355
:1008B300E697F60809E697F60809E697F60809E6C3
:1008C30097F622C3E096F008A3E096F008A3E0961B
:1008D300F008A3E096F022E056F608A3E056F608E7
:1008E300A3E056F608A3E056F622E0F608A3E0F6E6
:1008F30008A3E0F608A3E0F622E6F008A3E6F00872
:10090300A3E6F008A3E6F022E0FAA3E0FBA3E0FCF1
:10091300A3E0FD22E0F8A3E0F9A3E0FAA3E0FB22C1
:10092300E8F0A3E9F0A3EAF0A3EBF022CAC0E0E603
:10093300F0A308DAFAD0E0FA22CAC0E0E0A3C58245
:10094300CCC582C583CDC583F0A3C582CCC582C582
:1009530083CDC583DAE6D0E0CA22B90010BB000814
:10096300E88AF084F8AAF022E4FBC8FA22EB7022AA
:100973007B10C833C8C933C9335007C39AC3DBF2EA
:1009830080069A50012ADBEAC833F4C8C933F4C994
:10099300FA2275F008E4C833C8C933C933C99AC900
:1009A3009B5004C92AC93BD5F0ECFBC833F4C8E417
:1009B300C9FA22600D08C6A2E713C618C613C6D526
:1009C300E0F322600C08C6C313C618C613C6D5E0ED
:1009D300F422700422600D18C6C333C608C633C69A
:1009E300D5E0F41822251810AF08F518400C151996
:1009F3008008F51840021519D2AF2200C0D025187F
:100A030010AF08F518500C05198008F518500205A9
:100A130019D2AFD0D0222518F58210AF08F51840AF
:100A23000C15198008F51840021519D2AF851983E2
:100A3300222518F582E43519F583222518F8E435C3
:100A430019F9222518FAE43519FB222518FCE43597
:100A530019FD22E4732518C582C0E0E51934FFC5EA
:100A630083C0E0E518C3958224F810AF0885831985
:100A73008582188008858319858218D2AFCEF0A3AA
:100A8300E520F0A37808E608F0A3DEFAEFF0A3E58B
:100A93008124FAF8E608F0A3E608F0A3E608F0A339
:100AA3000808E608F0A3E608F0A315811581D0E055
:100AB300FED0E0F8158115811581E8C0E0EEC0E0B5
:100AC300222518C582C0E0E51934FFC583C0E0E5DF
:100AD30018C3958224F910AF08858319858218807D
:100AE30008858319858218D2AFCEF0A3E520F0A341
:100AF3007808E608F0A3DEFAEFF0A3E58124FBF81B
:100B0300E608F0A3E608F0A30808E608F0A3E60861
:100B1300F0A315811581D0E0FED0E0F81581158191
:100B2300E8C0E0EEC0E022851983851882E0A3FEC9
:100B3300E0A3F5207808E0A3F608DFFAE0A3FFE0DE
:100B4300A3C0E0E0A3C0E0E0A3C0E0E0A3C0E0E016
:100B5300A3C0E010AF0885821885831980088582B9
:100B630018858319D2AFD083D082020132851983CD
:100B7300851882E0A3FEE0A3F5207808E0A3F60839
:100B8300DFFAE0A3FFE0A3C0E0E0A3C0E0E0A3C07E
:100B9300E0E0A3C0E010AF088582188583198008C0
:100BA300858218858319D2AFD083D08222C0D02505
:100BB30018C582C0E0E51934FFC583C0E0E518C35A
:100BC300958224F310AF08858319858218800885E0
:100BD3008319858218D2AFC8F0A3E9F0A3EAF0A382
:100BE300EBF0A37908E709F0A3D8FAECF0A3EDF052
:100BF300A3EEF0A3EFF0A3D0E0F0A3D0E0F0A3D0F6
:100C0300E0F0A3E520F0A3E5F0F0A32285198385A6
:100C13001882E0C0E0A3E0F9A3E0FAA3E0FBA37825
:100C230008E0F608A3DFFAE0FCA3E0FDA3E0FEA3DF
:100C3300E0FFA3E0C0E0A3E0C0E0A3E0F5D0A3E0C1
:100C4300F520A3E0A3F5F010AF088583198582187A
:100C53008008858319858218D2AFD082D083D0E0F3
:100C6300F8D0E03274048006740280027401C0E09C
:100C7300F404120A19D0E012092F227404800474B8
:100C8300028000CCC0E0EDC0E0E518C39CCCAD19F8
:100C930050011D10AF068C188D1980068C188D1904
:100CA300D2AF12093CD0E0FDD0E0FC22D083D08249
:100CB300E9C0E0E493A3C386F0C5F095F0F908E436
:100CC30093A386F0C5F095F0700BE493A3C399400A
:100CD30005E9048002A3E475F002A42582F582E508
:100CE300F03583F583D0E0F9E493A3C0E0E493C047
:100CF300E022D083D082ECC0E0EDC0E0E493A3FC1B
:100D0300E493A3FDED4C600D120D41EC24FFFCEDCB
:100D130034FFFD80EFE493A3FCE493A3FDED4C606B
:100D23000D120D80EC24FFFCED34FFFD80EFD0E0CD
:100D3300FDD0E0FCE493A3C0E0E493C0E022C0E074
:100D4300C3E49396087401939618400FE493667076
:100D53000808740193661870007019A3A3C3E49381
:100D630096087401939618A3A3400DD0E0D0E0D069
:100D7300E0020D31A3A3A3A3A3A3D0E022C0E0C04C
:100D8300F088F0E4936670080874019366187000A5
:100D9300A8F0A3A3700BD0F0D0E0D0E0D0E0020D18
:080DA30031A3A3D0F0D0E0223F
:100DAC00851B87851CC622C0E074EF120BB0A2AF66
:100DBC00E433FEC2AF759B00906182E0A2E0500963
:100DCC00E591A2E050037591FEE0A2E55009E59192
:100DDC00A2E550037591DFE0A2E64003020E87E521
:100DEC0091A2E64003020E877591BF9002D8E06491
:100DFC000570081204A01204AC80031204A6751B23
:100E0C0000120500E99002D9F079001204F41203E3
:100E1C00F27A017B009002D7E0F9120590907803EA
:100E2C00E064427056900353E014F0704EC2AF125F
:100E3C000E3E00781ED0E0F618D0E0F6E59F540781
:100E4C00F870057509FF800375097FC4C0E0781D33
:100E5C00E6F50808E65509F509740B78081209C679
:100E6C00D0E02508F8906270E0A2E740F8E8C333C0
:100E7C00906272F0906270E0D2E0F0906181E0A23A
:100E8C00E35009E5E9A2E3500375E9F7A3E0A2E713
:100E9C005009E591A2E7500375917FEEA2E092AF65
:100EAC007F04020C0FC0E0C0D0C082C0839061836D
:100EBC00E0A2E05009E5BFA2E0500375BFFEE0A23E
:100ECC00E15009E5BFA2E1500375BFFDE0A2E2507D
:100EDC0009E5BFA2E2500375BFFBE0A2E35009E5B0
:100EEC00BFA2E3500375BFF7E0A2E45009E5BFA22F
:100EFC00E4500375BFEFE0A2E55009E5BFA2E55051
:100F0C000375BFDFE0A2E65009E5BFA2E65003750A
:100F1C00BFBFD083D082D0D0D0E032C0E074F21208
:100F2C000BB0E5A7A2E6500FE5A1A2E6500953A726
:100F3C00BF75A1BF120F7BE5A7A2E5500CE5A1A2DE
:100F4C00E5500653A7DF75A1DFE5A7A2E15009E53F
:100F5C00A1A2E1500375A1FDE5A7A2E2500CE5A109
:100F6C00A2E2500653A7FB75A1FB7F01020C0F7484
:100F7C00F7120AC4751B019002D8E06406701512B2
:100F8C0004648A828B83A3A3A3A3A3A3E0FAA3E0A4
:100F9C00FB12048EA2AFE433FED2AF9002DEE0640B
:100FAC000170187A207B009002D7E0F912060E7AB5
:100FBC00207B009002D7E0F9120596906182E0D276
:100FCC00E6F0900350E0602185C61C80169002DD8F
:100FDC00E064017008E5C654F84405F5C653BEFC40
:100FEC00120DAC7401651B60E4EEA2E092AF7F02BF
:100FFC00020B7074E9120AC474FA1209E8EAFEEBE7
:10100C00FF8C0A8D0B1204BEEAF8EBF9ECFAEDFB3F
:10101C008E828F831209239002D8E024F7C39405A3
:10102C0050067514010211661204648A088B09EAD1
:10103C0045097003021163EEFCEFFDAA18AB1912FF
:10104C0004B8850882850983A3A3780C1208ED9057
:10105C008018780C1208DA8518828519837810129A
:10106C0008ED90801878101208DA780C79101207B5
:10107C0013501F780C79101208B290803C780C1227
:10108C0007334047850C14850D15850E16850F17F3
:10109C00804590803C85101485111585121685139A
:1010AC00177814790C1208B27814120733501C7587
:1010BC001400751500751600751701781479101247
:1010CC0008B27814790C120879800C751401751516
:1010DC00007516007517007409781412085A908060
:1010EC0050780C1208ED7814790C1207D28508820E
:1010FC00850983A3A3A3A3A3A312118412095D885A
:10110C000C890DE4F50EF50F7814790C120879742E
:10111C0004120A3412118412095DE8FA8A0CE4F5FF
:10112C000D7814790C12071350077814790C1208E7
:10113C00B29002D8E06408600AE064066005E064DE
:10114C00057020908040781412073350169080441C
:10115C00781412088C800C75140075150075160027
:10116C00751700850A82850B8378141208FC7406A7
:10117C001209FE7F10020B70E0F8A3E0F97AD07B25
:10118C00032274F7120AC41204D090034EE06401D7
:10119C007010906245E4F0A3F053F4F343FE0C534B
:1011AC0090F312047CE5C654B84441F5C6E59E5450
:1011BC0047644170F8906185740FF090034CE0F433
:1011CC007002A3E0604E90034DE0600814601B14A5
:1011DC00602E804075080175090090034CE078087A
:1011EC001209D5E508F45280802A750801750900AA
:1011FC0090034CE078081209D5E508F4529080145D
:10120C0075080175090090034CE078081209D5E5C2
:10121C0008F452A079007F02020B7074F7120AC412
:10122C00E9FEEAFF1204D074016E700C7A807B0028
:10123C009002D7E0F912059090142CE493F4600816
:10124C00E493F91203E6800953C6B8E59E5447703F
:10125C00FA12048290034EE06401700312040490AD
:10126C00034CE0F47002A3E0604B90034DE0600887
:10127C0014601A14602C803D7508017509009003E8
:10128C004CE078081209D5E50842808028750801E1
:10129C0075090090034CE078081209D5E5084290D6
:1012AC00801375080175090090034CE07808120949
:1012BC00D5E50842A01204648A088B09A808A9097C
:1012CC00E8496014E5E170FCE82414F582E439F592
:1012DC0083E0F46003E0F5E174016F700A7A019029
:1012EC0002D7E0F91205DE02122274F1120AC48A46
:1012FC00088B098C0A8D0B90801878081208DA7408
:10130C000F120A34780C1208ED908018780C120821
:10131C00DA7808790C12071390803C501078087911
:10132C000C1208B278081207334014800E780C792E
:10133C00081208B2780C1207335004790180027934
:10134C00007F08020B7074ED120AC48A088B098C9A
:10135C000A8D0B90801878081208DA7413120A346C
:10136C00780C1208ED908018780C1208DA780C7949
:10137C000812071340117808790C1208B2AA08ABAE
:10138C0009AC0AAD0B8022751000751100751200A6
:10139C007513017810790C1208B2781079081208BC
:1013AC0079AA10AB11AC12AD137F0C020B70C2AF4B
:1013BC0002000022C0E074F2120BB0A2AFE433FEC4
:1013CC00D2AFE589A2E15003120674758900C2C53B
:1013DC00751A00EEA2E092AF7F01020C0FC0E07410
:1013EC00F2120BB0A2AFE433FED2AFE58BA2E05009
:1013FC0003120674758B00C2E880D5C0E0C0D0E83B
:10140C00C0E0E9C0E0E5A8D2AFC2C7751A00A2E7F8
:0F141C00A2E792AFD0E0F9D0E0F8D0D0D0E03224
:10142C00FFFFFFFFFFFFFFFF74F4120A58E9900261
:10143C00D7F01204CA907800E0C4540F5407640328
:10144C007004793F8002797F750806750900780869
:10145C00120C6B7CC57D027AEA7B0712065674026D
:10146C001209FE9002C5E0F47049A3E0F47044A3A5
:10147C00E0F4703FA3E0F4703AA3E0F47035A3E01D
:10148C00F4703090780EE09002C5F090780FE090F8
:10149C0002C6F0907810E09002C7F0907811E090BE
:1014AC0002C8F0907812E09002C9F0907813E090A6
:1014BC0002CAF09002CB1215C1121C389002E974CA
:1014CC0006F0A3740D1217A17441F0A37401F090EF
:1014DC0002F31215C19002F2E4F0900300F0A37431
:1014EC00A01217A17403F0A374071217A174281289
:1014FC0017A104F0A3E4F0900329F090034C74FFBF
:10150C00F0A3E4F090034EF090035004F0900351DC
:10151C007490F0A37401F01203FE1203A41204766B
:10152C0079017A537B0312042E900353E075F01467
:10153C0084E5F004F01204347A009002D7E0F9123A
:10154C0005DE907803E064427056900353E014F08B
:10155C00704EC2AF12156300781ED0E0F618D0E0C2
:10156C00F6E59F5407F870057509FF800375097F30
:10157C00C4C0E0781DE6F50808E65509F509740BBA
:10158C0078081209C6D0E02508F8906270E0A2E74E
:10159C0040F8E8C333906272F0906270E0D2E0F0F1
:1015AC009002EEE4F0A3F07A80FB9002D7E0F912FF
:1015BC00059002178F74FF1217A7F0A3F02274F492
:1015CC00120A58EAFEEBFFEEA2E0503F9002D9E07F
:1015DC00C39480E0500F25E0F8E433F974D828F573
:1015EC0082740C800EF425E0F8E433F974E628F5E7
:1015FC0082740C39F583121B11120A567A00900270
:10160C00D7E0F91205DEEE6401803B5480603B901C
:10161C000351121794E849602A79001205D89003F7
:10162C0051E0F508A3E0F509E4F50AF50B7808128A
:10163C000C677A007B019002D7E0F9120602740461
:10164C001209FEEE6480FAEF802DEF5401600C79E4
:10165C00011205D8EEFAEF6401801CEF5402600A07
:10166C00C2AF75C9AB75C95B80FEEF5404600B1239
:10167C0013BAEEFAEF6404FB80179002DEE064010B
:10168C00700BEE54206006EE6420FA80047A007B26
:10169C000002178FC082C083C2AF1204A6E5E170AE
:1016AC00FC75E1011203EC75E1F11204D61203E0B2
:1016BC007907120524790112052A79021204FA120B
:1016CC00050C120518790012051E790112051E90E1
:1016DC00802012090B1204E2900300E4F0A3F0A3A3
:1016EC00F09003047407F09003037403F090030963
:1016FC00E4F0900308F0900329F012044012042245
:10170C007900120530906012E4F0A3F0906063F061
:10171C00751B009002D8F09002DAF0A3F09002DD75
:10172C00F09002DE04F09002E804F090034FE4F035
:10173C00D2AFF9021788C082C0839002C512179AE3
:10174C009002C6121774F09002C7121774A3F0908F
:10175C0002C8121774A3A3F09002C912177BF09061
:10176C0002CA12177BA38011E08A828B83A322E02A
:10177C008A828B83A3A3A3A322F07900D083D08287
:10178C000201327F04020B2AE0F8A3E0F922E08A7E
:10179C00828B83F022F0A3E4F0A322F0A3F0A3F059
:1017AC00A3F0A3227F02020B2A74F7120A58EAFE56
:1017BC00EBFF8908E9605D740165086015740365C9
:1017CC0008603B74026508603574046508600302A8
:1017DC00188A740B120A34121794E8497003021811
:1017EC008A740A120A34E0F8600874016860030213
:1017FC00188A74036508600674026508702AEE2462
:10180C0060F8EF1219435076EC2460F8ED1219438E
:10181C004016806AEE24E0F8EF1219385060EC2480
:10182C00E0F8ED1219385056C3EC9EED9F404F7402
:10183C0009120A34E0FA600574016A7041740E12E0
:10184C000A34E0F8600F740168600A74026860057D
:10185C007403687029740D120A34E0F97407596026
:10186C001D900300E064017005790C021936E5083F
:10187C00600C7401650860067404650870057912C3
:10188C00021936740759900304F0E508900303F02D
:10189C00E8900305F0EA9002F2702FE4F09002C594
:1018AC00E09002F3F09002C6E09002F4F09002C7D0
:1018BC00E09002F5F09002C8E09002F6F09002C9B8
:1018CC00E09002F7F09002CA802E7401F09002CBE7
:1018DC00E09002F3F09002CCE09002F4F09002CD94
:1018EC00E09002F5F09002CEE09002F6F09002CF7C
:1018FC00E09002F7F09002D0E09002F8F0E870046B
:10190C007900801974016870047901801074026880
:10191C00700479028007740368700579031205124C
:10192C00900301EEF0A3EFF07900801634FFF9C3B9
:10193C00E894E1E9943F2234FFF9C3E89461E99417
:10194C003F227F01020B2A74F6120A58E9FEC39457
:10195C0020500BEE900309F0601EEA4B70047912D4
:10196C00801E121B56120C6BEAFCEBFD7A0A7B03F1
:10197C0012054E74021209FE9003087401F07900EE
:10198C000217B074F4120A58E9FF9002D8E0640907
:10199C007003021A9AE0640A7003021A9AE0640B4C
:1019AC007003021A9AE0640C7003021A9AE0640D38
:1019BC007003021A9A900303E0601664016012E04F
:1019CC006403600DE064026008E064046003021BC1
:1019DC000D9002F2E0600764016003021B0D90039E
:1019EC0003E064036005E064027010900301C3E03F
:1019FC0094A0A3E094005003021B0D900303E0702D
:101A0C0003021B0D64017003021B0DE064047003E0
:101A1C00021B0DEF7003021AA6146003021B0D903B
:101A2C000300E06401606779011204589002F0EA47
:101A3C00F0A3EBF09003007401F09002D8E0705525
:101A4C001204B28A088B098C0A8D0B9080147808CA
:101A5C0012088C90801878081208DA9002F0121B89
:101A6C0011A3A378081208FC9002F0E0F8A3E0C8D8
:101A7C002406F582E438F583E4F0A3F012040AE9B5
:101A8C0060107AF07B0212045E900300E4F079217E
:101A9C008005120446790002178F900300E060EE77
:101AAC00A2AFE433FEC2AF7AF07B0212045E900365
:101ABC0000E4F0120470E970411204A6906182E017
:101ACC00C2E6F0E5E170FC75E1017591BF75E1F1DD
:101ADC009002DEE0640170187A207B009002D7E05F
:101AEC00F912060E7A207B009002D7E0F9120596C7
:101AFC007A009002D7E0F91205DEEEA2E092AF80F8
:101B0C009479128092E0F8A3E0F58388822274F62F
:101B1C00120A58E9FEC39420500BEE900329F06092
:101B2C001EEA4B70047912801E121B56120C6BEAC3
:101B3C00FCEBFD7A2A7B0312054E74021209FE900F
:101B4C0003087401F079000217B0E0F5087509007C
:101B5C00780822C082C083EA4B70057912021C0DF2
:101B6C009002D8E06005790C021C0D8A828B83E010
:101B7C00F47060A3E0F4705B8A828B83A3A3E0F41F
:101B8C0070518A828B83A3A3A3E0F470468A828B64
:101B9C0083A3A3A3A3E0F4703A8A828B83A3A3A3A9
:101BAC00A3A3E0F4702D9002D1E09002C5F0900256
:101BBC00D2E09002C6F09002D3E09002C7F09002FF
:101BCC00D4E09002C8F09002D5E09002C9F09002E7
:101BDC00D68027121C388A828B83E09002C5121C97
:101BEC0016E09002C6121C109002C7121C1D900227
:101BFC00C8121C299002C9121C24E09002CAF07968
:101C0C0000021788121C16A3E022F08A828B83A391
:101C1C0022121C16A3A3E022121C2EA322121C2E8D
:101C2C00E022F08A828B83A3A3A3A3229002C5E0B7
:101C3C009002D1F09002C6E09002D2F09002C7E080
:101C4C009002D3F09002C8E09002D4F09002C9E068
:101C5C009002D5F09002CAE09002D6F02253FDEF2C
:101C6C0053FDDF53F3EF53F3DFC284C28553F7DF29
:101C7C0053F7DF020132EAF8EBF9E824FF18E934F4
:101C8C00FFF9C3E89401E9121DF650EE020132741B
:101C9C00F7120A58E9600553FDEF800543FD10C2A9
:101CAC00847A017B00120230806D74F7120A58E9B5
:101CBC00FE7900120236EE43FD206004D2858002CC
:101CCC00C2857901804E74F7120A58E9FF7E0874B8
:101CDC00805FF912023CEFC333FFDEF3790012028E
:101CEC00367A027B0012023053FDDF790112023684
:101CFC00E580FE7A057B0012023043FD10C2847A27
:101D0C00017B00120230D2F0EEA2E530F001B3E418
:101D1C0033F980031202367F01020B2A74F7120A80
:101D2C005879011202367E03A284400B7A017B00A3
:101D3C001202301EEE70F1121D7912023079008001
:101D4C00D3C082C08379001202367A017B00120262
:101D5C0030121D79120230790112023653FDDF7AEE
:101D6C00017B00120230D083D08202013243FD206D
:101D7C00C2857A017B0022C082C0837900120236B0
:101D8C007901120236A285E433F980DA74F4120A6E
:101D9C0058E9FF75080053FDDF7E07120254E96015
:101DAC0010750A01750B00EE780A1209D5E50A4286
:101DBC000874FF2E1E121DF550E1790012023679BF
:101DCC0001120236EF600553FDDF800543FD20C292
:101DDC008579011202367A017B00120230790012E9
:101DEC000236A9087F04020B2AC39400A2D265D044
:101DFC00332274F7120A58E9FE7F03120248EEF9F7
:101E0C00120242E970041FEF70F1021D23C082C060
:101E1C008379301202607900120242790012023684
:101E2C007A037B0012023053FDDF793112026053CA
:101E3C00FDDF7A057B00120230790112025AE9901B
:101E4C000284F07A027B0012023012024E7A057B79
:101E5C0000120230900284E064FA79306003021EB2
:101E6C00F31202607A057B00120230790F120242E3
:101E7C0079001202367A057B0012023079051202C3
:101E8C00427A057B0012023012024E7A057B001258
:101E9C00023079301202607A057B00120230791020
:101EAC0012024279001202367A057B001202307956
:101EBC000D1202427A057B0012023012024E7A0594
:101ECC007B0012023079301202607A057B0012021C
:101EDC0030791112024279001202367A057B001217
:101EEC0002307900021F86120260790F12024279C9
:101EFC00001202367A037B0012023053FDDF793177
:101F0C0012026053FDDF7A057B0012023079011258
:101F1C00025AE9900284F07A027B0012023012021B
:101F2C004E7A057B0012023079301202607A057B02
:101F3C0000120230792312024279001202367A051D
:101F4C007B0012023079101202427A057B001202D9
:101F5C003012024E7A057B00120230793012026088
:101F6C007A057B00120230792012024279001202AB
:101F7C00367A057B0012023079501202427A057BC8
:101F8C000012023012024E7A05021D6D74F7120A0D
:101F9C0058E9FF7930120260EFF91202427900120F
:101FAC00023653FDDF793112026053FDDF790112E5
:101FBC00025AE9FE12024EEEF9021D230000000047
:101FCC000000000000000000000000000000000005
:101FDC00000000000000000000000000EAF8EBF92F
:101FEC00E824FF1AE934FFFBE84970D0020132748F
:101FFC00F4120A58890A8A0B750801E9C39408502F
:10200C001378008005C333F50808E8C3950AE50882
:10201C0040F342F2EA14600814600914600A800C60
:10202C007900800A7910800679208002793090023C
:10203C0081E0F8E50A4948F5B67EF57F01E5B4A2E2
:10204C00E740197AE87B03120272EE24FF1EEF348C
:10205C00FFFFEE4F70E77AFE7BEF8053E50AC394E7
:10206C0008500674FF650852F2E5BAF508E5BBAAFC
:10207C0008FB121DF550047A007B00E50B14600878
:10208C0014600D14601280188A088B09740880166D
:10209C008A088B097406800E8A088B0974048006E2
:1020AC008A088B09740278081209B6AA08AB0902CF
:1020BC001DF074F4120A5874FB1209E8E9900285B9
:1020CC00F075F30075FD409002817480F07580000E
:1020DC0012022A120266900282E4F0A3F07A0479CA
:1020EC00071202788A0A8B0B1206F8E50A900C5F2D
:1020FC00F0E50BA3F0A37401F0900C5FE012220C3E
:10210C00900C5BF0900C5FE012220B900C5AF0904C
:10211C000C60E0FA12220C900C59F0EA12220B908F
:10212C000C58F0900C3EE0900C57F0900C3DE09069
:10213C000C56F0900C5FE0900C75F0EA900C74F07B
:10214C00900C737401F07A5F7B0C12035C740212B6
:10215C000A347401F07403120A347464F0A3E4F0CA
:10216C0004120A347402F085188285198314F00461
:10217C00120A4E79017A027B031206267403120AA4
:10218C004E79027A037B031206267C4E7D0C791164
:10219C007A057B031206267C657D0C791C7A047B00
:1021AC00031206267401120A4E79017A067B031279
:1021BC000626AC18AD1979017A027B031206267C2F
:1021CC00407D067A067B001202907C407D067A07E1
:1021DC007B001202907C407D067A087B00120290F4
:1021EC007C407D067A097B001202907A017B00907C
:1021FC000285E0F912059074051209FE021DF0C467
:10220C00540FF8743D28F582E4340CF583E0227405
:10221C00F6120A58900282E02401F0A3E03400F098
:10222C00900286E004F0A2E05005758040800375B2
:10223C0080001202667A0479071202788A088B09E8
:10224C00900284E064FA704D790212026CE9900CF1
:10225C0078F0790312026CE9900C79F0790412028F
:10226C006CE9900C7AF0790512026CE9900C7BF019
:10227C00790612026CE9900C7CF0790712026CE979
:10228C00900C7DF0790812026CE92417900C7EF00A
:10229C00A374FA804F792812026CE9900C78F079CB
:1022AC002912026CE9900C79F0792A12026CE990EF
:1022BC000C7AF0792B12026CE9900C7BF0792C12D1
:1022CC00026CE9900C7CF0792D12026CE9900C7D7B
:1022DC00F0792612026CE92419900C7EF09002849D
:1022EC00E0900C7FF0E508900C76F0E509A3F07C0B
:1022FC00657D0C7B1C7A01900285E0F91202D27C80
:10230C004E7D0C79117A057B031206267F02020B97
:10231C002A74F7120A58EAFEEBFF54806005EF644A
:10232C0080804BEEA2E05023908048120C7E7A0203
:10233C007B00900285E0F912060274041209FE7A01
:10234C00877B0212062CEE640180215402602290DD
:10235C008048120C7E7A027B00900285E0F912060E
:10236C000274041209FE120284EE6402FAEFFB807E
:10237C00047A007B00021D2374F4120A588908EABF
:10238C00FEEBFF122A686005791102245A90028B29
:10239C00E0540560309002A8122A6B600512268664
:1023AC007005791002245A90028BE0A2E0400612CC
:1023BC00032CE960158E828F83E0F8740368600A41
:1023CC007402686005791202245A7A0C7B0012059B
:1023DC00C69002A6122614122A68606E12279EE579
:1023EC000812245DE4F0750A0AF50B780A120C6BDE
:1023FC00EEFCEFFD9002A6E02402FAA3E03400FB11
:10240C0012054E74021209FE1202EAE9FE60051270
:10241C00030E803890028CE0640370307A1D7B00D0
:10242C0012029690028D12261490028D122A6B6065
:10243C001B908024120C7E7A047B009002AEE0F993
:10244C0012060874041209FE80027E13EEF90229AA
:10245C009BF09002A6122465221229B1F583888282
:10246C00A32274EE120A58890C8A0A8B0B8C0E8DDF
:10247C000F90028BE0540570030225127401650A5B
:10248C00700D9002A8122A6B607C9002A8800B90B1
:10249C0002AA122A6B606F9002AAE0FEA3E0FFEB87
:1024AC00C394205008EB6009EC450F70047902804E
:1024BC0057E50C900CD0F08E828F83A38582088513
:1024CC0083097C1F7D007900AA08AB0912055A8587
:1024DC000B107511007810120C6BAC0EAD0FAA0816
:1024EC00AB0912054E74021209FE8E828F83E50B26
:1024FC00F0F9E50AAA08AB09600512034A80031239
:10250C000350E9F9800279127F0A020B2A74F71240
:10251C000A58122A667004791280391226866E6067
:10252C00047903802F7A027B009002AEE0F9120648
:10253C000E9002ACE4F0A3F07A04FB9002AEE0F94A
:10254C0012060E90028DE4F0A312245D7403F07950
:10255C000012035602260CD083D08202013274F78B
:10256C00120A589002A8122A6B600D1229A51205A6
:10257C00CC9002A8E4F0A3F09002AA122A6B60108F
:10258C009002AA1229A81205CC9002AAE4F0A3F09A
:10259C0090028BE05405605F7AD17B0C1203387E7D
:1025AC000090028BE05405604A7A207B001205C62D
:1025BC001226119002A8122A6B60367C207D0079BD
:1025CC000012055A7A207B001205C69002AA122628
:1025DC00149002AA122A6B600B7C207D00790012E9
:1025EC00055A800F1229A51205CC9002A8E4F0A37D
:1025FC00F07E13EEF980097A007B00120338790023
:10260C007F01020B2A9002A8EAF0A3EBF02274F6E9
:10261C00120A587E018A828B83A3A3A3E0FCA3E059
:10262C00FD8C088D097808120CAF0620047926451C
:10263C00267926572657264D261229E31202F080BA
:10264C00061229E31202F6E9FE802474086C70036A
:10265C0074206D70047901800279008A828B83A3C7
:10266C00A3A3A3A3122683FA1202FC80027E00EE1F
:10267C00F90229A09002A8E0F8A312279EE0227488
:10268C00F2120A58122A68700302275D122799A3C6
:10269C00E0F50B12032CE960137A0A7B0012029608
:1026AC008A088B09AE08AF097A0B802A120314E949
:1026BC0060137A067B001202968A088B09AE08AF6B
:1026CC00097A0780117A087B001202968A088B0916
:1026DC00AE08AF097A097B001202968A088B099022
:1026EC00028CE07005750A008003750A019002A641
:1026FC00E02404FAA3E03400FB12245EA3A3E0F967
:10270C001202AEE9F91229AEC8240B122764120C7E
:10271C006F1229AEC8240A122764120C6F9002A6FD
:10272C00E02404F50CA3E03400F50D780C120C6BCE
:10273C00E9F50C780C120C6F780A120C6FA90BAC23
:10274C0008AD09EEFAEFFB12034474061209FE8081
:10275C000279017F06020B2AF582E438F583E0F555
:10276C000C780C2274F7120A58122A66601AEE7052
:10277C000C1227997401F0F9120356E9FEEE60046D
:10278C00F912030879018002790002260C12279EA7
:10279C00A322E0F58388822274F0120A58122A666A
:1027AC007003022885122799E06401600302285EF9
:1027BC00120314E960557A017B001202968A088B89
:1027CC0009E4F50AF50BC3EA9442EB9400402B9014
:1027DC008024120C7E7A027B009002AEE0F9120685
:1027EC000874041209FEE50824C4F8E50934FFF95D
:1027FC009002ACE8F0A3E9F08041908048780C128C
:10280C0008ED7808790C12075280107A007B0012C0
:10281C0002968A088B09E4F50AF50BE5084509458B
:10282C000A450B60167808120C677A027B0090023E
:10283C00AEE0F912060274041209FE12245E740250
:10284C00F090028FE07007EEF91203088027E4F095
:10285C00802390028FE0701D7A037B00120560EAE2
:10286C004B600F12288C7404F09002A61229EC1203
:10287C00056C12030E7901800279007F08020B2A85
:10288C008A828B8374D0F0EEA3F08A828B83A3A30D
:10289C002274F6120A58E9FEEAFF900CD0E0F460BC
:1028AC002A7A047B00120560EA4B601F8A828B83B4
:1028BC0074D0F0EF1228947402F0EE8A828B83A30A
:1028CC00A3A3F0900CD0E0F912056C0229A074F4CB
:1028DC00120A58E9FE74016E60030229769002AC6C
:1028EC00122A6B600690028FE06012122A68700345
:1028FC00022999122686F91202D80229999002AC63
:10290C00C3E0943CA3E09400400D9002ACE024C4DE
:10291C00F0A3E034FF80507A027B009002AEE0F925
:10292C0012060E9002ACE0F508A3E0F509E5087577
:10293C00F0E8A4C508A8F075F003A428F875F0E831
:10294C00E509A428F509E4F50AF50B7808120C67DB
:10295C007A027B009002AEE0F912060274041209AE
:10296C00FE9002ACE4F0A3F08023122A68601E9063
:10297C00028BE0A2E250167A027B009002AEE0F9E4
:10298C0012060E9002ACE4F0A3F012030E80007F4E
:10299C0004020B2A7F02020B2A9002A8E0FAA3E0A1
:1029AC00FB229002A6E0F8A3E02274F6120A581259
:1029BC002A6660207A037B00120560EA4B600F12D6
:1029CC00288C7403F09002A61229EC12056CEE60B0
:1029DC000312030E0229A08A828B83A3A3A3A3A3B1
:1029EC00E0F8A312279EE0F922C082C083122A6865
:1029FC0060109002A61229A81205CC9002A6E4F051
:102A0C00A3F002256374F6120A5874FF1209E890B9
:102A1C0002A8122A6B60399002A8E02401F508A3E1
:102A2C00E03400F5097808120C6B122680FC740255
:102A3C00120A4679011202C674021209FE8A828BAE
:102A4C0083E58245836009E0A2E0500479018002AD
:102A5C00790074011209FE0229A0E9FE9002A61267
:102A6C0029B1F9E84922C082C0839061907404F0C6
:102A7C00A37448F0A37402F09061807440F09061EC
:102A8C00BC7403F09061877419F0906265741BF04C
:102A9C00906249E0C3941390619C40107409F090CB
:102AAC0060667401F090619F7428800D740BF09037
:102ABC006066E4F090619F742CF0122C457009C292
:102ACC00919002DC746780059002DC7461F0122C2A
:102ADC00A090142CE493F46006E493F91203E679C5
:102AEC0005120536022C55C082C083E9540FF990AB
:102AFC006185E0696012E5C654B84441F5C6E59EAF
:102B0C005447644170F8E9F053C6B8E59E544770D9
:102B1C00FA022C55C082C083A8A853A87E9061816C
:102B2C00E4F0A3F0A3F0C2BA539AFEC289759B00DD
:102B3C00C2C275E90075910075BF0075A91175B910
:102B4C0005906181F0A374C0F0A3E4F0D2BA439A6B
:102B5C000174805842A8022C55C082C08374F812AC
:102B6C0009E89002DA12307FE8497003022C3E909B
:102B7C0002DAE0544060177908AA18AB1912042E37
:102B8C00AA18AB191203629002DAE054BFF0E0A26B
:102B9C00E0501E122C457009C2919002DC746780C3
:102BAC00059002DC7461F01203689002DAE054FEC6
:102BBC00F0E05402601E122C937009D2919002DC4A
:102BCC00747180059002DC746AF01203689002DA6A
:102BDC00E054FDF0E054046010901430122CA31259
:102BEC00036E9002DAE054FBF0E05408601090148D
:102BFC0031122CA312036E9002DAE054F7F0E05479
:102C0C0010600D122CA012036E9002DAE054EFF05B
:102C1C00E05420600A12036E9002DAE054DFF0A355
:102C2C00E05401600D1204041203749002DBE054B2
:102C3C00FEF074081209FE801090619A122E959085
:102C4C00034EE0640122F0A3F0D083D08202013263
:102C5C00C082C083E960051460178029122C45706E
:102C6C0009C2919002DC7467801A9002DC74618056
:102C7C0013122C937009D2919002DC747180059020
:102C8C0002DC746AF080C290619A122E8790034E17
:102C9C00E0640122901432E493906186F02274EA8D
:102CAC00120A5874F41209E890801CAC18AD19740F
:102CBC000412093C90143093F46003022E1C90789B
:102CCC0008E0C394025003022E0090800C7404128E
:102CDC000A4E740812093CA818A91988148915748D
:102CEC0004120A3E88088909AE08AF097510FF75F1
:102CFC0011FF750EFF7C00750C48750D78801274F1
:102D0C00086C7003022D9674096C607E740A6C60FA
:102D1C0079850C82850D8378081208ED8E828F835D
:102D2C00A909E50AC9F8881274187808120841E54F
:102D3C00124508F8C3E098A3E099850C82850D83B1
:102D4C0078081208ED40188E828F83741878081258
:102D5C000841E5124508F8E0C398F8A3E0801A741E
:102D6C00187808120841E5124508FAE9FB8E828FA3
:102D7C008312307FEAC398F8EB99F9C3E89510E910
:102D8C0095115006881089118C0E0CE50C2404F555
:102D9C000C5002050DECC394135003022D0B74FF61
:102DAC006510700474FF65116024850E0874027838
:102DBC00081209D574482508F58274783509F5830D
:102DCC0078081208ED851482851583E508F0EE2449
:102DDC0002FE50010F851482851583A3858214850C
:102DEC008315740C120A34E5826E7003E5836F60F0
:102DFC0003022CF87508017509007808120C6B7425
:102E0C0002120A4E7A0C7B0512065C74021209FE41
:102E1C00740C1209FE7F0E020B2AC082C0839061D3
:102E2C00AE7468F0A3746AF090624574FBF0A3046E
:102E3C00F053F4FD43FE0290034E7401F09061A038
:102E4C00E0643A90619A7019122E957401640170C5
:102E5C0009C2919002DC7467801E9002DC74618060
:102E6C0017122E87740164017009D2919002DC74E0
:102E7C007180059002DC746A022C54743FF0A374C8
:102E8C005AF09061A0747FF0227433F0A37455F063
:102E9C009061A0743AF022C082C08375E1F1900376
:102EAC0003E024FE604D14704F1204109002F2E007
:102EBC00F97AF37B021204DC90802812090B1205BC
:102ECC000690802012090B1204E2900304E0F91220
:102EDC0004EE790112052A9002F0E0F8A3E0C82470
:102EEC001AF582E438F583741CF0A37404F07900AD
:102EFC00022C5512041680B4791280F474F7120A5D
:102F0C0058122F514402F5D97582F3758302122F92
:102F1C00FA7004E583640270F5900309E0600A78A6
:102F2C000A7903FA122FEEDAFB75E195900CD812A0
:102F3C002F63F0A3122F631230027414F09002D896
:102F4C00740402308E900309E02407F5D99002F244
:102F5C00E0C4333354C02274D4122F70122F70F08B
:102F6C00A3740322F0A37403F0A374D42274F71295
:102F7C000A58122F514406F5D97582F37583021243
:102F8C002FFA7004E583640270F5900309E0600A7F
:102F9C00780A7903FA122FEEDAFB900329122F54D8
:102FAC004404F5D97582F3758302122FFA7004E587
:102FBC0083640270F5900329E0600A782A7903FA99
:102FCC00122FEEDAFB75E195900CD874CEF0A37449
:102FDC00031230441230027415F09002D8740302BC
:102FEC00308E88828983123083A882A98322123082
:102FFC0083E58264F922F0A374DAF0A3740312302F
:10300C003912304812302F240EF582E438F58374CF
:10301C00FFF0A3F0A3F0A312302F2414F582E438B0
:10302C00F58322F09002F0E0F8A3E0C822F0900CB7
:10303C00E6743AF0A374042212304822F0A3743AD6
:10304C00123057123057F0A374042212305E123033
:10305C005E22F0A37404F0A3743A22C082C0839061
:10306C0002F0E0F8A3E0C82406F582E438F583E426
:10307C00022C5212308822E0F5D9A322E0F8A3E00A
:10308C00F922F07F01020B2AC082C083E49002E097
:10309C007808F0A3D8FC9002E004022C5474F412CB
:1030AC000A5874FC1209E87F00900C3CE4F0900C78
:1030BC0039F07E7D7508047509007808120C6B7464
:1030CC0002120A4E7A007B00EEF9120656740212B6
:1030DC0009FE90804C78081208ED851882851983BA
:1030EC0078081206FE7019900C39E0600FF9120680
:1030FC00C8EEF91206C8900C39E48001EEF0801885
:10310C00851882851983120917E8494A4B7004EE19
:10311C00FF8005EEF91206C80EEEC3947F40959021
:10312C000C39E07026EF7018797D1206BC900C3AC1
:10313C007404F0A3E4F0900C3CE060197900801763
:10314C00F01206CEEFF91206DA800AEF6004F912DB
:10315C0006C21206CE79010231F974F7120A5874BC
:10316C00FC1209E8E9FE851882851983E4F0A3F0C6
:10317C00A37410F0A3E4F0AC18AD19FAFB1206E638
:10318C00900C3CE07005EE900C39F074041209FEC2
:10319C007F01020B2A74F4120A5874FF1209E88991
:1031AC0008900C3CE070321206627E007F00750ABB
:1031BC0001750B00780A120C6B7402120A4EEEFAAF
:1031CC00EFFBA90812065674021209FE85188285B7
:1031DC001983E0F46008900C3C7401F0800B0EEE47
:1031EC0070010FC3EF940840C5740180027404127F
:1031FC0009FE7F04020B2A74F4120A5874FF120998
:10320C00E889087E007F00750A01750B00780A12A8
:10321C000C6B7402120A4EEEFAEFFBA9081206565A
:10322C0074021209FE851882851983E0F46007A9DF
:10323C00081206C2800B0EEE70010FC3EF9408400B
:10324C00C680A674F4120A5874FC1209E87EFC7F3E
:10325C00077508047509007808120C6B7402120AC1
:10326C004EEEFAEFFB900C39E0F91206567402128E
:10327C0009FE90806C78081208ED851882851983F8
:10328C0078081206FE700AEE24FCFEEF12332E5064
:10329C00C01235FCE8F0A3E9F00231F974F4120A1B
:1032AC005874FC1209E88908EAFEEBFF8C09EE243D
:1032BC00FCFEEF12332E4063750A04750B00780A7E
:1032CC00120C6B7402120A4EEEFAEFFBA9081206EE
:1032DC005674021209FE7402120A341234E985186B
:1032EC008285198385090AE0650A7002A3E0700AD9
:1032FC00EEC398FAEF9400FB8025E9548070AFE898
:10330C002404FAE439FBC3EE9AEF9B400EEEC3980B
:10331C00F8EF99F9E824FCFEE980987A007B00022A
:10332C0031F934FFFFC3EE9404EF94002274F012D1
:10333C000A5874F31209E8E9851882851983F07527
:10334C000FFF647D7005750E7E8003750E7D750A0A
:10335C0004750B00900C3AE024FCFEA3E0023462EE
:10336C007403120A34A3E0548060030234517403D2
:10337C00120A34850F08E065087002A3E07003029E
:10338C0034517403120A34E0F50FFCAA0AAB0BA9F2
:10339C000E1206D48B09EA450960030234517405F8
:1033AC00120A341234EFF508EF99F5097407120A72
:1033BC0034E8F0A3E9F07401120A34E4F0A3F075D8
:1033CC000C04750D00780C120C6B740B120A4E74F5
:1033DC0003120A34E02508FAA3E03509FB900C39F6
:1033EC00E0F912065674021209FE7409120A4E74A0
:1033FC0001120A34E0250AFAA3E0350BFBA90E12E0
:10340C0006E67401120A34E02404F0A3E03400F060
:10341C007407120A34C082C0837401120A34123445
:10342C00E9D083D082C3E098A3E09950927405123E
:10343C000A34E02404F8A3E03400F9E50A28F50A7C
:10344C00E50B39F50B7405120A341234EFF8EF99C9
:10345C00F9E824FCFEE912332E405D900C3CE07040
:10346C00777508047509007808120C6B7405120A3C
:10347C004EEEFAEFFB7402120A34E0F9120656749F
:10348C00021209FE7403120A34E0F47003A3E0F490
:10349C00600302336C7405120A341234E9548060F0
:1034AC0007EE24FCFEEF80AEE82404F8500109C3BB
:1034BC00EE98EF99508F8020A90E1206BC900C3C10
:1034CC00E0700A900C3AE50AF0A3E50BF08518823F
:1034DC00851983E0F91206C2740D0235F4E0F8A3E5
:1034EC00E0F9221234E9EEC3982274F1120A5874EE
:1034FC00FC1209E8890E8A088B098C0C8D0D74134B
:10350C00120A34E0FE8015E5082404F508E43509B8
:10351C00F509E50C2404F50C5002050DEEFF74FFC3
:10352C002F1E04603D750A04750B00780A120C6B93
:10353C007402120A4EAA08AB09A90E12065674029E
:10354C001209FE780A120C6BAC0CAD0D7402120A47
:10355C004612055474021209FEE970AB900C3C74CF
:10356C0001F074041209FE7F07020B2A74F0120A90
:10357C0058890AEAFEEBFF8C0E8D0F900C3CE07024
:10358C004D7508017509007808120C6B8E088F09AF
:10359C00740278081209C6890CF50D7409780C129E
:1035AC0009D5E5082400FAE509350DFB12065C7413
:1035BC00021209FE7508017808120C6FAC0EAD0FE3
:1035CC00EEFAEFFBA90A1206E074011209FE0235AD
:1035DC00F7C082C0831206B6E970047901800279C3
:1035EC0000D083D0820201321209FE7F08020B2A1E
:1035FC00EE2404F8E43FF9900C3A22C082C0839088
:10360C00035AE4F090035974FFF0900356F09003C2
:10361C0055E4F0900354F0900357F0A3023AF3747E
:10362C00F4120A58900357E0F508A3E0F509E508F1
:10363C00450970061203F202371585088285098345
:10364C00E014600A14600724FE6003023715E0F9E9
:10365C001204528A0A8B0BAE0AAF0BEE650870038C
:10366C00EF650970030237128E828F83E06401606C
:10367C000302371512040A1204B28A088B098C0A49
:10368C008D0B90802C780812088C7808120C678EA1
:10369C00828F83A3A312090B1212F674041209FE73
:1036AC00E970591204B28A088B098C0A8D0B908030
:1036BC0014780812088C90801878081208DA8E8218
:1036CC008F83A3A378081208FC9002D8E0640270E0
:1036DC00258E828F83A3A378081208ED9080307812
:1036EC000812088C90801878081208DA123885783D
:1036FC00081208FC800612388512371A900356748B
:10370C0001F0EEFAEFFB12044C7F04020B2A74FF5B
:10371C00F0A3F0A3F0A3F02274F0120A58EAFEEB27
:10372C00FFEE2402F8E43FF988088909EE2406F834
:10373C00E43FF9880A890B8882F583120C8285088C
:10374C008285098312090B12049474021209FE85F6
:10375C000A82850B83120C828508828509831209E3
:10376C000B12048874021209FE12388512090B120E
:10377C00049A8E828F83E06440701BEE2412F8E46E
:10378C003FF988828983E0906064F088828983A302
:10379C00E09060658006906064E4F0A3F0900357BD
:1037AC00EEF0A3EFF0EE241AF582E43FF583E0F897
:1037BC00A3E0F5838882120A56906054E412388F85
:1037CC00A312388F906182E0C2E6F07591BF123877
:1037DC007BE0640170031204D0E5E170FCEE24146C
:1037EC00F582E43FF583E0F46003E0F5E112387B09
:1037FC007401F09002DEE06401706F1204B28A086A
:10380C008B098C0A8D0B7808120C678E828F83A320
:10381C00A312090B12135274041209FE8A088B09A5
:10382C008C0A8D0B908034780C1208ED7808790C8A
:10383C0012075274037808120841E50824F4F508BD
:10384C00E5093401F509900350E060031205B4E476
:10385C00F50AF50B7808120C677A207B009002D7DA
:10386C00E0F912060274041209FE7F08020B2AEE1C
:10387C002415F582E43FF58322EE240EF582E43F15
:10388C00F5832212371CA3F0A3F02274F0120A580D
:10389C00890874FF6508707A900355E0540770032B
:1038AC00023A31790412046AE96401701B900359DD
:1038BC00E064047006A3E0640160067A007B00807B
:1038CC00047A597B03023A35790112046AE96401DE
:1038DC00701B900359E064017006A3E0640160065C
:1038EC007A007B0080047A597B03023A3579021204
:1038FC00046AE96401701B900359E064027006A32A
:10390C00E0640160067A007B0080047A597B030234
:10391C003A35900359E065087006A3E0640160062F
:10392C007E007F0080047E597F03A90812046AE997
:10393C0064017004780180027800E50814600D14AD
:10394C00606A24FE70030239DA023A31900359E0BE
:10395C006402703CA3E064017041E8A2E0502AA329
:10396C00780C1208ED908038780C12088C780C12B8
:10397C000C678E828F83A3A312090B1212F67404A8
:10398C001209FEE97003023A2B7A597B03023A358D
:10399C00E064047006A3E06401604EE8A2E0500607
:1039AC00EEFAEFFB80047A007B00807D900359E0F7
:1039BC0064047008A3E06401700D802DE064017054
:1039CC0006A3E064016022E8A2E050598051900304
:1039DC0059E064017008A3E06401703E800BE06460
:1039EC00027037A3E064017031E8A2E0509BA37829
:1039FC000C1208ED908038780C12088C780C120C94
:103A0C00678E828F83A3A312090B1212F674041211
:103A1C0009FEE960030239958005E8A2E05006EE44
:103A2C00FAEFFB80047A007B0002387674F7120AF6
:103A3C0058E9FE90035AE0705F7401F0EE90035960
:103A4C00F01204B2EAF8EBF9ECFAEDFB90035B121E
:103A5C00092390035FE4F0A3F090036712371A90E8
:103A6C00036D7401F0A3F0900373E4F0A3F09003E2
:103A7C0055E04EF0900354E004F06401600A748049
:103A8C006E600574406E700A9003577459F0A374FD
:103A9C0003F07A597B0380047A007B007F01020BD0
:103AAC002AC082C0838A828B83E0F8A3E0F98A82E1
:103ABC008B83E4F0A3F088828983A3F088828983C6
:103ACC00E0F4F8900355E058F0900354E014F070D3
:103ADC0014900357E4F0A3F09002D8F0FA9002D7B8
:103AEC00E0F91205DE8001F0D083D082020132C0F1
:103AFC0082C083900354E0600A900357E0FAA3E07D
:103B0C00FB80047A007B0080DFC082C083E9F890E0
:103B1C000359E0687005A3E0F98002790080C9E0E0
:103B2C00F980C5C082C08390035480F374F7120AE5
:103B3C00587409120A34123DE6801C8C828D83E085
:103B4C008A828B83F08C828D83A3AC82AD838A8234
:103B5C008B83A3AA82AB83E8FEE9FFEE24FF18EF68
:103B6C0034FFF9EE4F70D4023C7B74F5120A58EC1A
:103B7C00F8EDF9740B120A34E0F508A3E0F509AC82
:103B8C0008AD09EC24FFF508ED34FFF509EC4D60A8
:103B9C002CEAFCEBFD8C828D83A3AA82AB83E8FE1E
:103BAC00E9FF8E828F83A3A882A9838C828D83E008
:103BBC00FC8E828F83E06C60C67900800279017F75
:103BCC0003020B2A74F6120A58E9FE8C088D097848
:103BDC0008120C6B8E08AC087D001206F2740212EF
:103BEC0009FE023DB174F6120A58EAFEEBFFEE4FE5
:103BFC00603DEE2405FAE43FFB1205C68A088B09EA
:103C0C00A808A909E849602788828983E4F0A3F011
:103C1C0088828983A3A3EEF0A3EFF088828983A323
:103C2C00A3A3A374FFF0E82405FAE439FB80047A1B
:103C3C00007B00023DB1C082C083EA4B7004790561
:103C4C008016123CE460047904800DEA24FBFAEB44
:103C5C0034FFFB1205CC7900D083D0820201327480
:103C6C00F7120A587C001205728004A2E092AF7F12
:103C7C0001020B2A74F7120A58E9FEECFFEA4B60BA
:103C8C0027908070E0F8EEC3984007120566790320
:103C9C008044EA24FBF582EB123E5E123DB67005C1
:103CAC00123CE460071205667905802AEEF0740177
:103CBC006F700DEAFCEBFD7A7C7B03120584800BA4
:103CCC00EAFCEBFD7A7C7B0312057E7A007B80EEAE
:103CDC00F912059079008097EA24FFF582EB34FF06
:103CEC00F583E0F42274F4120A588908750A0075F9
:103CFC000B007E007F00A2AFE433F509C2AF900346
:103D0C007C8011EE4F7004880A890BE824FBF58245
:103D1C00E9123E5E123DB66023E824FFF582E912FB
:103D2C003E5EE0650870DCEE4F7006E8FEE9FF8051
:103D3C00DA7A007B80A908120590800D7A007B80CE
:103D4C00A908120596EE4F6015780A120C6BEEFC62
:103D5C00EFFD7A7C7B0312058A74021209FEE509D9
:103D6C00A2E092AFEEFAEFFB7F04020B2AE0FAA37B
:103D7C00E0FB2274F7120A58EAFEEBFFA2AFE43321
:103D8C00FAC2AF123E58E4F0A3F08003123E638EE9
:103D9C00828F83123DB670F48E828F83ECF0A3ED8C
:103DAC00F0EA023C777F02020B2A123DE6E8492238
:103DBC0074F7120A58E5A8FEC2AF8A828B83123DB3
:103DCC00E6123E58E8F0A3E9F08A828B83ECF0A36C
:103DDC00EDF0EEA2E7A2E7023C79E0F8A3E0F922CD
:103DEC0074F4120A58A2AFE433FEC2AFEC24FBF811
:103DFC00ED34FFF9880889098882F583123DE68A3B
:103E0C00828B83E0F50AA3E0F50BEC650A7003EDF9
:103E1C00650B70068A828B838012740C120A34E054
:103E2C00FAA3E0CA24FBF582EA123E5EE8F0A3E9AD
:103E3C00F0850882850983E4F0A3F0EC24FF123EA0
:103E4C005B74FFF0EEA2E092AF023D74EC24FBF544
:103E5C0082ED34FFF58322E824FBF8E934FFF9E81E
:103E6C00FEE9FF2274F7120A58E9FD908070E0F821
:103E7C00EDC398502AE5A8FEC2AFED29F8E433F95A
:103E8C0090037EE028FCA3E0398C82F583E04AF0B5
:103E9C00A3E04BF0EEA2E7A2E792AF7900800279A3
:103EAC0003023C7B74F7120A58E9FE908070E0F82C
:103EBC00EEC3985022E5A8FFC2AFEAF4FCEBF4FD88
:103ECC00EE29123FBDE05CF0A3E05DF0EFA2E7A2AB
:103EDC00E792AF790080027903023C7BC082C083F9
:103EEC001205BA90037CE4F0A3F01205EA1205D295
:103EFC001205AE1205C07900023C64C082C0831268
:103F0C0005A880FB74F4120A587508001205B41247
:103F1C000650A808E828123FBD123DB6700D0508E2
:103F2C00908070E0F8E508C39840E7908070E0F866
:103F3C00E508C398506CE5A8FCC2AFAE08EE2EFEA7
:103F4C00E433FF90037EE02EF8A3E03FF9888289EA
:103F5C0083123D7988828983E4F0A3F0ECA2E7A276
:103F6C00E792AFE508900CF2F0F974002EF582742C
:103F7C00803FF583123FB4120A56900CF274FFF096
:103F8C00E5A8F9C2AF90037EE02EF8A3E03F88824B
:103F9C00F583E04AF0A3E04BF0E9A2E7A2E792AF89
:103FAC0080031205E4023D74E0F8A3E0F5838882F7
:103FBC0022F8E433F990037EE028FAA3E0398A82F0
:103FCC00F5832274F2120A5889098C0C8D0D750830
:103FDC00008982AE827F008A0A8B0B780A120CAFA2
:103FEC00020308734103405E407840BE40F3400A30
:103FFC004121413F41564174016509600302416E04
:10400C00900CF3E0F88C828D83E0900CF3F0E86078
:10401C001CE06003024196900B9BE064026003027B
:10402C004196900B9AE0F91202D8024196E0700387
:10403C00024196900B9BE064016008E0640360030E
:10404C000241967A017B00900B9AE0F912059002DE
:10405C00419674026509600302416E8C828D831255
:10406C004444900CF4E8F0A3E902416BE9C39420BA
:10407C00400302416E7C1F7D0079007AF77B0C12A5
:10408C00055A8E0A8F0B780A120C6BAC0CAD0D7A9C
:10409C00F77B0C12054E74021209FEEE900CF6F032
:1040AC007CF77D0CFB7A01900B9AE0F91202D2029C
:1040BC00418EE9C39420400302416E7C1F7D007940
:1040CC00007AA47B0B12055A8E0A8F0B780A120CFD
:1040DC006BAC0CAD0D7AA47B0B12054E740212095D
:1040EC00FEEE900BA380787401650970758C828D3F
:1040FC0083E0F8C39405506AE8900BC380617401A7
:10410C006509705E8C828D83E0F8C394045053E88B
:10411C00900BC4804A740665097047750A068F0BAC
:10412C00780A120C6B7AC57B0B12054E74021209BD
:10413C00FE80577401650970298C828D83E0F8C369
:10414C009408501EE8900BCB801574016509701211
:10415C008C828D83E0F8C394045007E8900BCCF06C
:10416C0080287508188023C3EA9427EB9400501715
:10417C007402650970118C828D83E0FCA3E0FD1242
:10418C000290E9F5088003750802A9087F06020B66
:10419C002A7F04020B2A74F6120A58900B9BE070CB
:1041AC0037EA4B6008900BCDEAF0A3EBF0E4F5088E
:1041BC00F5097808120C6B7808120C6B7C007D00EA
:1041CC007B00900B9CE0FA900B9AE0F91206447479
:1041DC00041209FE7900800279117F02020B2A7405
:1041EC00F7120A58E9900B9AF0900B9BE4F012032B
:1041FC001A900B9C7401F0900BC37403F0900BC4D9
:10420C00E4F0900BCB7407F0900BCCE4F07F010240
:10421C000B2A74F4120A5874F61209E8EAFEEBFF42
:10422C005480602C900B9AE0F91205788A088B095F
:10423C00EA450960138A828B83E064D0700312060E
:10424C003EAA08AB09120566EEFAEF64800242F34F
:10425C00EEA2E040030242F6900CF3E0700302423F
:10426C00EE900BC3E0851882851983F0900BC4E0A7
:10427C00C0E07401120A34D0E0F07508067509002C
:10428C007808120C6B7CC57D0B7404120A34AA825C
:10429C00AB8312054E74021209FE900BCBE0C0E00A
:1042AC007408120A34D0E0F0900BCCE0C0E0740932
:1042BC00120A34D0E0F0AA18AB19900B9AE0F9125C
:1042CC0002CCE9601D900B9B7404F0124302601247
:1042DC0012443B88828983E5824583600579041208
:1042EC000A56EE6401FAEFFB80047A007B00740A34
:1042FC001209FE02419D900BCD124444E8492274F0
:10430C00F4120A588A828B83A3A3E0F8EA2403FCF4
:10431C00E43BFD8A828B83A3AE82AF83E8601224D8
:10432C00FE60691470030243EC1470030243EC80CA
:10433C0058E070317508067509007808120C6B7A14
:10434C009D7B0B12054E74021209FE900B9B74019F
:10435C00F07CF77D0C900CF6E0FB7A01900B9AE068
:10436C00F91202D2E96006900B9B7404F01243021E
:10437C00601712443BE8FAE9FBEA4B600C900B9B8C
:10438C00E0F98A828B83120A5602419DE070488CB8
:10439C00828D83E0601B7CA47D0B900BA3E0FB7AE9
:1043AC0000900B9AE0F91202D2E98E828F83F08092
:1043BC0026900B9BE06402601E7A017B00900B9AA6
:1043CC00E0F9120614EA4B4C4D700C7A017B00900C
:1043DC000B9AE0F91205908E828F83E0708980A988
:1043EC00E070847403687008900B9B74020243782D
:1043FC00900CF4124305900CF3602AE06029900CA9
:10440C00F4E0F508A3E0F509E4F50AF50B780812D9
:10441C000C677A017B00900B9AE0F9120602740487
:10442C001209FE8002E4F0900B9B7403024378E0C7
:10443C00F583888212444422E0F8A3E0F92274F751
:10444C00120A58900B9612445BF07F01020B2AE47F
:10445C00F0A3F0A3F0A32274F1120A58890EEAFE1D
:10446C00EBFF1205F6740F120A3478081208EDEA05
:10447C004B600D8A828B83A3A378081208FC806A98
:10448C007A0D7B001205C6EA4B605B8A828B83A394
:10449C00A3A3A3A3A3A3A3E50E1244FBEEF0A3EFE7
:1044AC00F08A828B83A3A378081208FC8A828B8300
:1044BC00E4F0A31244FBA3A3A312445CF0900B946E
:1044CC0012484F900B946017E0FCA3E08003E8FCCB
:1044DC00E9FD8C828D8312484F70F38C828D83EAB8
:1044EC00F0A3EBF080047A007B007F07020B2AF02C
:1044FC008A828B83A3A3A3A3A3A322C082C083908D
:10450C000B9480048C828D83E0FCA3E0FDEC4D6069
:10451C00238C828D83A3A3A3A3A3A3E06A7003A31C
:10452C00E06B70E08C828D83A3A3A3A3A3A3A3A3AE
:10453C00E06970D0ECFAEDFB024650C082C083EA11
:10454C004B600E8A828B83A3A3A3A3A3A3E4F0A343
:10455C00F002465074F6120A58E5A8FFC2AF740A6E
:10456C00120A34120C7E1205F074041209FE8B0927
:10457C00A909EFA2E7A2E792AFEA496004790080AB
:10458C000279087F02020B2A74F2120A58A2AFE4D5
:10459C0033FEC2AF740E120A3478081208ED780894
:1045AC00120C671205F074041209FEEA4B60128AB1
:1045BC00828B83A3A3A3A3A3A3A3A3A3780812080A
:1045CC00FCEEA2E092AFEA4B60047900800279081D
:1045DC007F06020B2A74F4120A58A2AFE433F509D1
:1045EC00C2AF1205F68A0A8B0BAE0AAF0BEE4F6008
:1045FC00031205FCE509A2E092AFEE4F60047900CE
:10460C00800279067F04020B2A74F2120A5875088C
:10461C0000750900750A00750B00A2AFE433FEC2E9
:10462C00AF1205F68A828B83E58245836007A3A3CC
:10463C0078081208EDEEA2E092AFAA08AB09AC0A1A
:10464C00AD0B808CD083D08202013274F0120A58E8
:10465C0074F91209E88A088B098C0A8D0B74031201
:10466C000A3478081208FCE5A8F9C2AF900B9678CA
:10467C000812089FE9A2E7A2E792AF900B941248A8
:10468C004F700302483F900B94E0FEA3E0FF7401CF
:10469C00120A34E4F0A3F0750C00750D00A2AFE41F
:1046AC0033851882851983F0C2AFEE2402F50EE42F
:1046BC003FF50F7405120A3412484F70257404121A
:1046CC000A34E0701D7403120A34E0F88E828F8372
:1046DC00A3A3E0C398400B8E828F83A3A3E0C3985F
:1046EC008037850E82850F8378081208ED740312CB
:1046FC000A34780812072350177403120A34780806
:10470C001208ED850E82850F8378081208C6800A80
:10471C00850E82850F8312445BF0EE2404F50AE4C7
:10472C003FF50B1248497054850A82850B83124859
:10473C004F704EEE2409F508E43FF509850882F523
:10474C0083120917E8494A4B604F8E828F83A3A3CB
:10475C00A3A3A3A31248BE60408E828F83A3A3A3FE
:10476C00A3A3A3A3A3E0F91205908508828509836E
:10477C00120917850E82850F83120923124849707E
:10478C000B850A82850B8312484F600D8E828F83B6
:10479C00A3A3A3A312484D702E8E828F83E0F8A39F
:1047AC00E0F97401120A341248BE7005900B948023
:1047BC000B7401120A34A3E0F5838A82E8F0A3E9B2
:1047CC00F08E0C8F0D800A7401120A34EEF0A3EFF8
:1047DC00F08E828F83E0FEA3E0FF8518828519831B
:1047EC00E0A2E092AFE50C450D6041850C82850D91
:1047FC008312484D702F850C82850D83A3A312481C
:10480C004D7022850C82850D83A3A3A3A3A3A312B1
:10481C0048B8850C82850D83A3A3A3A3A3A3A3A34C
:10482C00E0F9120590AA0CAB0D1205CCEE4F60030B
:10483C000246A374071209FE7F08020B2A8E828F90
:10484C0083A3A3E0F8A3E0F9E8492274F0120A5814
:10485C00900B9412484F603D900B941248B8750C15
:10486C008E750DC2750EF5750F288A828B83A3A3E6
:10487C0078081208ED780C7908120713500C85088B
:10488C000C85090D850A0E850B0F8A828B831248C5
:10489C00BE600E80D5750C00750D00750E00750F81
:1048AC0000AA0CAB0DAC0EAD0F024844E0FAA3E02D
:1048BC00FB221248B8EA4B22A2AFE433F8C2AF5342
:1048CC0094FEE594A2E240FAE8A2E092AF75A7004C
:1048DC0075A100759CFF75C30075A20075A30075CA
:1048EC00A40075A50075A60075C31175A20075A36B
:1048FC000075A40075A50075A60075C33375A200DC
:10490C0075A30075A40075A50075A60075C3447544
:10491C00A20075A30075A40075A50075A60075C34B
:10492C002275A22075A34E75A40075A50075A6006E
:10493C00759408A2AFE433F8C2AF439401E594A296
:10494C00E250FAE8A2E092AF439402020132A2AF25
:10495C00E433F8C2AF5394FEE594A2E240FAE8A225
:10496C00E0024B78A2AFE433F8C2AF439401E59474
:10497C00A2E250FA80E8E9A2E7E433F8E9A2E79270
:10498C00AF802575C303851882851983E0F5A27461
:10499C000122E9A2E7E433F8E9A2E792AF85188295
:1049AC00851983E0FAA3E0FB7402024AD5F59CE971
:1049BC00A2E7E433F8E9A2E792AF024AD3C082C07F
:1049CC008374FC1209E8124A9075C333124A84129C
:1049DC000A341249FF120A34E0F5A67404120A34A0
:1049EC00E0F5A27405120A34E0F5A375A1BF43A744
:1049FC004080BCE0F5A5740222124B3CA9A8C2AFC2
:104A0C0022C082C08374FE1209E8124A3075A1FDDF
:104A1C0012498F120A34E0F5A3E59C54F04401F5D9
:104A2C009C024982124A3753A7FD228518828519A8
:104A3C0083EAF0A3EBF0A9A8C2AF22C082C08374B2
:104A4C00FC1209E8124A9075A1BF439C0F75C33341
:104A5C00124A84120A341249FF120A34E0F5A67481
:104A6C0004120A34E0F5A27405120A34E0F5A3E549
:104A7C009C54F044080249B9851882851983E0F5E5
:104A8C00A4740122124A0553A7BF22E5A4851882FB
:104A9C00851983F0E5A5C0E07401120A34D0E0F06A
:104AAC00E5A6C0E07402120A34D0E0F07403120AD6
:104ABC0034E4F0E9A2E7E433F8E9A2E792AF851811
:104ACC008285198312090B74041209FED083D082DB
:104ADC0002013274F4120A5874FC1209E8124B3CAD
:104AEC00A2AFE433F9C2AF53A7DF75A1DF90806C9E
:104AFC0078081208ED85188285198378081206FE4D
:104B0C007005439CF0801A75C340124A84120A3413
:104B1C001249FF120A34E0F5A6E59C540F4450F5F7
:104B2C009CE9A2E092AF74041209FE7F04020B2AE6
:104B3C00851882851983EAF0A3EBF0A3ECF0A3EDC2
:104B4C00F022A9A8C2AF53A7098015A9A8C2AF53D8
:104B5C00A709759CFF8009A9A8C2AF439C0F8003CD
:104B6C0075A109E9A2E7E433F8E9A2E792AF0201E3
:104B7C0032A3A3A3E4F0E8A2E7E433F9E8A2E792B6
:104B8C00AF024AD8C082C08374FC1209E8A9A8C23B
:104B9C00AF75C300E5A2024A97C082C083A8A8C221
:104BAC00AF75C300E5A28A828B83A3A3A3A3F0E510
:104BBC00958C828D83F0E5A38A828B83A3A3A3A318
:104BCC00124BECA3A3A3E4F0E5968C828D83A3F0A7
:104BDC00E5978C828D83A3A3F08C828D83024B7D11
:104BEC00A3F0E5A48A828B83F0E5A5A3F0E5A68A61
:104BFC00828B83A3A3F08A828B8322C082C08374AE
:104C0C00FC1209E8A9A8C2AFE5958518828519831D
:104C1C00F0E596C0E07401120A34D0E0F0E597029A
:104C2C004AAEC082C08374FE1209E8A9A8C2AFA81C
:104C3C00C375C300E5A2E5A4851882851983F0E548
:104C4C00A5C0E07401120A34D0E0F088C302499E7A
:104C5C00C082C083C3EA9427EB9400501674FF6C97
:104C6C00700374FF6D600C124CA0ECF0A3EDF079A6
:104C7C000080027902024DB4C082C083C3EA94273B
:104C8C00EB94005008124CA0124DBB80047AFF7BB1
:104C9C00FF024DB4EA2AFAEB33FB74822AF58274D4
:104CAC000C3BF5832274F7120A58E9FEEAFF7C10DC
:104CBC007D0079007A907B0212055AEE900C81F0FF
:104CCC00EF90028BF012033EE9F99002907005749C
:104CDC0001F08004E4F079127F01020B2A74F612C1
:104CEC000A58E9FF7E00701EEA4B601A7508068EA2
:104CFC00097808120C6BEAFCEBFD7A977B02120523
:104D0C004E74021209FE900290E0640170147E0150
:104D1C00EF70087402F01203928007E4F0EFF912BE
:104D2C0002BAEEF97F02020B2A74F6120A587E00C0
:104D3C00EA4B603F8A828B83E0F97021A3E0F5088F
:104D4C008A828B83A3A3E0FDE50890029DF0A3ED7E
:104D5C00F08A828B83A3A3A3E090029FF090029031
:104D6C00E06402700E7E01E9700474038001E4F0CB
:104D7C001202BA80ADC082C083E9F87900EA4B60B8
:104D8C0025E86022EA2405F582E43BF5837401688A
:104D9C007005E044C0800CE0543FF074036870046C
:104DAC00E0D2E6F079018000D083D082020132E0BB
:104DBC00FAA3E0FB2274F4120A588908900C81E0E3
:104DCC00F4604F7A0A7B001205608A0A8B0BAE0ADC
:104DDC00AF0BEE4F603C124EE77408F090028CE083
:104DEC008E828F83A3A3A3F0750A06750B00780A35
:104DFC00120C6B7CA07D02EE2404FAE43FFB12053E
:104E0C004E74021209FEEEFAEFFB900C81E0F912DF
:104E1C00056C90028FE06401703A9002AF124E65FF
:104E2C00E8496019E0F5838882A3A3A3A3124E6519
:104E3C0088828983E58245836003120A5690802418
:104E4C00120C7E7A047B009002AEE0F91206087414
:104E5C00041209FE7F04020B2AE0F8A3E0F9227485
:104E6C00F4120A588908900C81E0F4606B7A0C7B80
:104E7C00001205608A0A8B0BAE0AAF0BEE4F60581E
:104E8C00124EE7E4F0750A06F50B780A120C6B7CEF
:104E9C00977D02EE2403FAE43FFB12054E740212D6
:104EAC0009FE90029D124E658E828F83A3A3A3A34D
:104EBC00A3A3A3A3A3E8F0A3E9F090029FE0C0E0B2
:104ECC00EE240BF582E43FF583D0E0F0EEFAEFFB35
:104EDC00900C81E0F912056C024E608E828F837407
:104EEC00D0F0A3E508F08E828F83A3A32274EE1278
:104EFC000A588A088B09890B8C0E8D0F900378E069
:104F0C00700990037AE07003024FC69002B3E06020
:104F1C0003024FC6890C750D00E92407FAE434002E
:104F2C00FB1205608A108B11AE10AF11EE4F70039F
:104F3C00024FD774186508700474206509600C74EE
:104F4C00176508700474206509701090037AE0608E
:104F5C000AF50A8E828F837492800C900378E0F5A8
:104F6C000A8E828F837491F0A3740E12518874018F
:104F7C00125190E508F0A3E509F0EE2405F8E43FA2
:104F8C00F9E8FAE9FBEE2407F8E43FF98A828B830F
:104F9C00E8F0A3E9F0780C120C6BAC0EAD0F8A8222
:104FAC008B83E0FAA3E0FB12054E74021209FEEEAD
:104FBC00FAEFFBA90A12056C8011780E120C6BAC7F
:104FCC000B790E12038074021209FE7F0A020B2A5F
:104FDC0074F2120A5889098A0A8B0B8C0874072CF4
:104FEC00FA74FF65096004780380027802E82AFAF3
:104FFC007B001205608A0C8B0DAE0CAF0DEE4F7062
:10500C00030250F78E828F837401F0A374FFF0EECD
:10501C002402FAE43FFBEE2404F8E43F1250FCE5D2
:10502C0009125162E02402F8A3E03400F9890DE57D
:10503C000BF9740E120A3412512774FF6509602E95
:10504C00740325088882850D8312516212512D122A
:10505C005172E50AF012517FE9F085080A750B00D0
:10506C00780A120C6B8A828B83E0240680637402AC
:10507C0025088882850D83F08C828D83E0C0E08AC0
:10508C00828B83125118D0E0F08C828D83A3E0C008
:10509C00E0125172D0E0F08C828D83A3A3E0C0E0CB
:1050AC0012517FD0E01251621251541251601251C0
:1050BC0048E9F0E50824FDF50AE434FFF50B780A1D
:1050CC00120C6BEC2403FC50010D8A828B83E024C0
:1050DC0008FAA3E03400FB12054E74021209FEEE2E
:1050EC00FAEFFB900376E0F912056C7F06020B2AAF
:1050FC00F98A828B83E8F0A3E91251661251348A43
:10510C00828B831251132212513BA32212511C2267
:10511C001251202212513FA3A3A322E0FCA3E0FDD5
:10512C002212511C7401F02212513B7404F0221211
:10513C00513F22E0F8A3E0F58388822212516C24BF
:10514C0007F582E438F5832212516C2406F582E4CB
:10515C0038F58322E50A12516622F08A828B83226B
:10516C00E0F8A3E0C8228A828B8312517A22125172
:10517C0020A3228A828B8312517AA322F08E828FF3
:10518C0083A3A322125188A32274F0120A5875E14A
:10519C00811204E8E97008900304E0F91204EE7936
:1051AC000112046AE96401600302525590034AE05B
:1051BC00F8A3E0F9E84960061252F2120590900348
:1051CC0008E06401705B12533D4406F5D97582F317
:1051DC0075830212530D7004E583640270F590031D
:1051EC0009E0600A780A7903FA125300DAFB90039B
:1051FC00291253414404F5D97582F3758302125375
:10520C000D7004E583640270F5900329E0600A7860
:10521C002A7903FA125300DAFB75E195900308E43E
:10522C00F012042812535012088C125316120879DB
:10523C00908018780C1208DA8A828B83780C12080A
:10524C00FC12537B741512532A1204467F08020B6E
:10525C002A74F0120A5875E1811204E8E97008907A
:10526C000304E0F91204EE790112046AE964017096
:10527C007290034AE0F8A3E0F9E84960061252F292
:10528C00120590900308E06401703012533D440203
:10529C00F5D97582F375830212530D7004E583649E
:1052AC000270F5900309E0600A780A7903FA125348
:1052BC0000DAFB75E195900308E4F0120428125310
:1052CC005012088C125316120879908018780C1210
:1052DC0008DA8A828B83780C1208FC12537B7414C4
:1052EC0012532A02525590034AE0FAA3E0FB9003B2
:1052FC0049E0F92288828983E0F5D9A3A882A983A1
:10530C0022E0F5D9A3E58264F922900301E0F508C7
:10531C00A3E0F509E4F50AF50B780C790822125391
:10532C00AB241AF582E438F583741CF0A37404F0F2
:10533C002275E191A3E02407F5D99002F2E0C43381
:10534C003354C022E9FC9002F0E02402F8A3E034CC
:10535C0000F9E8FAE9FB8A828B83EC75F0118485FD
:10536C00F00885080CE4F50DF50EF50F780C22907D
:10537C0002F0E0F8A3E0C82406F582E438F583E4F3
:10538C001253A9240EF582E438F58374FFF0A3F0D0
:10539C00A31253A92414F582E438F58322F0A3F068
:1053AC009002F0E0F8A3E0C822C082C08353BFEFA4
:1053BC00790112046AE96401700C7AF07B02120420
:1053CC005E900300E4F075E1F1120446D083D082C4
:1053DC00020132C082C0831204D61204D0025603DA
:1053EC00C082C0839061B1E0C2E0F0E04403F09071
:1053FC006188E0640470F8025603C082C083906137
:10540C00C0E0FAE4F0F8F9E82400F582E93460F53C
:10541C0083E4F008E8700109C39480E9940140E743
:10542C00EA9061C0F090618A74010255FEC082C09E
:10543C00838A828B83E0906016125547A3E09060BC
:10544C00171254779060181254809060191254857A
:10545C0090601A12548A90601BF0E99060157005E8
:10546C00E0C2E08003E0D2E0025602F08A828B8335
:10547C00A3A3E022125495E022125490E02212547D
:10548C0090A3E022125495A322F08A828B83A3A3CB
:10549C00A32274F0120A58EA906005F0EBA3F0EC2A
:1054AC00A3F07F08020B2AC082C083906001E00247
:1054BC005523C082C083740759906001025602C004
:1054CC0082C0837401699060037005E0D2E08003B0
:1054DC00E0C2E0025602C082C083906003E054F93F
:1054EC0049025602C082C083906061E00255237469
:1054FC00F0120A58EA9061951255940254ACC0828D
:10550C00C083900375E4F0906022F0A3F0A3783090
:10551C00F0A3D8FC025603F9025603C082C0839054
:10552C006014E054FCF0E049025602C082C0839043
:10553C006009E40256029061C07401F08A828B8388
:10554C0022C082C0837A007B60E970027A331255E4
:10555C0042E4F0A3F0A3F09061C0025602C082C0F6
:10556C0083E9906002025602C082C083E990600217
:10557C007005E0D2E38003E0C2E3025602C082C0B1
:10558C0083E99061C6025602F0EBA3F0ECA3F0EDB8
:10559C0022C082C083E9601714601C14601E146062
:1055AC002314602514602A14603314603C804190ED
:1055BC0061E9E054FC80389061E9801C9061E9E07D
:1055CC00C2E0802B9061E9801B9061E9E0C2E18030
:1055DC001E9061E9E0C2E1F0E0D2E080129061E956
:1055EC00E0C2E0F0E0D2E180069061E9E04403F033
:1055FC008005F0A3F0A3F0D083D082020132C082E8
:10560C00C08374F91209E87401120A34AA82AB83BC
:10561C001203AA1256C579077A097B1012037A79FC
:10562C0000740702570374F7120A5874FF1209E842
:10563C00740F120A34125680120C6F740F120A3443
:10564C00125680120C6F740E120A34120C82740FE4
:10565C00120A34125680120C6F740F120A3412563E
:10566C0080120C6F1203B074061209FE1256D67A11
:10567C00060256F2E0F50878082274F7120A5874FC
:10568C00FF1209E81203B61256D67A080256F274C3
:10569C00F7120A5874FF1209E81203C21256D67A8E
:1056AC00090256F274F7120A5874FF1209E8120331
:1056BC00BC1256D67A0A0256F2E9851882851983ED
:1056CC001256D022F0AC18AD1922E9851882851932
:1056DC00831256D07901221209FE7F02020B2A791D
:1056EC000074030257037B2012037A7900740112B1
:1056FC0009FE7F01020B2A1209FED083D08202011F
:10570C0032E91256D0790322C082C08374FD12098B
:10571C00E8851882851983740CF07401120A3474AC
:10572C0004F01203C87402120A3412570D7A0C7B5F
:10573C00FC12038C900377E060087A007B40F9122E
:10574C0005900256EB74F6120A5874F71209E885A4
:10575C001882851983E4F0750808F5097808120C8D
:10576C006BEAFCEBFD7403120A34AA82AB831205BC
:10577C004E74021209FEAC18AD1979097A187B2007
:10578C0012037A74090256E3C082C08374FD1209B5
:10579C00E8851882851983E4F004120A347404F045
:1057AC007402120A34E412570EFA7BFC12038C02B8
:1057BC0056EDC082C08374FD1209E88518828519E4
:1057CC00837401F0120A347404F07402120A34E483
:1057DC0012570E7A0180D3C082C08374FD1209E87F
:1057EC008518828519837416F07401120A347404B6
:1057FC00F07402120A34E412570E7A160257B6C02D
:10580C0082C083900B88E4F0A3F0900B8A748AF02A
:10581C00A37403F090038A7448F0A37402F090050B
:10582C00D2F0A37480F0A374B4F0A37405F0D08309
:10583C00D08202013274F6120A587A017B001205EA
:10584C00C6E5A8FEC2AFEA24FEF8EB34FFF9900BD4
:10585C008AE8F0A3E9F01205CC900B8C7401F0EE01
:10586C00A2E7A2E792AF7F02020B2A74F2120A5847
:10587C007C007D007F00EA2402FAE43BFBA2AFE44B
:10588C0033FEC2AF900B8CE06008EA9411EB9400ED
:10589C00500A900B8AE0F8A3E0F9800478D47905DB
:1058AC0088828983E0F508A3E0F509548060057FC0
:1058BC0000025954EFA2E0507C8C828D83E0F50AF3
:1058CC00A3E0F50B5480F50DE50A2508F508E50B6A
:1058DC003509547FF509E50D4509F5098C828D8351
:1058EC00E508F0A3E509F0547FF509C3E5089AE54E
:1058FC00099B4054ECF8EDF9E84970030259C28851
:10590C00828983E0FCA3E0547FFDECC39AFCED9B01
:10591C00FDC3EC9404ED9400405DE82AF582E93B6C
:10592C00F583ECF0A3EDF0EB4480FB88828983EAED
:10593C00F0A3EB804AE509547FFDC3E5089AED9B83
:10594C0050B67F01E8FCE9FD88828983E0F508A365
:10595C00E0547FF509E82508F8E93509F9888289CA
:10596C0083E0F508A3E0F509E50845096003025852
:10597C00AC78007900803F88828983A3E04480F072
:10598C00900B8CE06029900B8AE0FAA3E0FBE86AAC
:10599C007002E96B701988828983E0FAA3E0547F66
:1059AC00FBE82AFAE93BFB900B8AEAF0A3EBF0E860
:1059BC002402F8500109EEA2E092AFE8FAE9FB7F6D
:1059CC0006020B2AC082C083EA24FEF8EB34FFF9EE
:1059DC00A2AFE433FCC2AF88828983A3E0547FF08A
:1059EC00900B8AE0FAA3E0FBE89AE99B5008900B35
:1059FC008AE8F0A3E9F0ECA2E092AF02583AC08238
:105A0C00C083E9900CD7025BED74F7120A58E99049
:105A1C0002AEF01205487F01020B2A74F4120A58E8
:105A2C008A088B09EB548060799002AEE0F912057C
:105A3C00788A0A8B0BAE0AAF0BEE4F605C8E828FAE
:105A4C0083E064917039A3E024F2602924D0702F94
:105A5C00750A018E828F83A3A3E06402700F125B20
:105A6C00DE600D125AF26008120A568003750A00A5
:105A7C00850A0B8006120332E9F50BE50B701390C7
:105A8C000CD7E0F4600CEEFAEFFBE0F912056CE9D0
:105A9C006007EEFAEFFB120566AA08E5096480FBC5
:105AAC00803FEAA2E05017125BDE600C125AF260E3
:105ABC00077A007B00120A56E5086401801A54022A
:105ACC00601B9002AF125BE1600A125AF26005791A
:105ADC0001120A56E5086402FAAB0980047A007BCD
:105AEC00007F04020B2A125BC7A3A3125BBDE582E5
:105AFC00458322790002013274F4120A587E018A1D
:105B0C00828B83A3A3A3E0F508A3E0F50985080A1B
:105B1C00F50B780A120CF5010008200A209F5B0790
:105B2C00000910675B0220545B05204B5B06209F2D
